:100000000C940D020C9445020C9445020C9445028C
:100010000C9445020C9445020C9445020C94450244
:100020000C9445020C9445020C9445020C944C111E
:100030000C9408110C941B120C9445020C9445026C
:100040000C9445020C9445020C9445020C94F71153
:100050000C9445020C9445020C9445020C94450204
:100060000C9445020C9445020C9445020C944502F4
:100070000C94450200000000000000000000000099
:100080000000000000000000000000000000000070
:1000900000000000000000007E0F00D4FFFFFFC73B
:1000A0000000007800000000000000002A2B28005B
:1000B0000000000000000000000000000000002917
:1000C000000000002C1E3420212224342627252E57
:1000D000362D3738271E1F2021222324252633338F
:1000E000362E37381F0405060708090A0B0C0D0EBB
:1000F0000F101112131415161718191A1B1C1D2F87
:100100003130232D350405060708090A0B0C0D0EA6
:100110000F101112131415161718191A1B1C1D2F66
:100120003130354C783C1E1E140A050001010101D6
:1001300001010101010202020202020202020303A2
:100140000303030303030404040404040405050572
:100150000505060606060607070707070808080834
:10016000090909090A0A0A0B0B0B0C0C0C0D0D0DE1
:100170000E0E0E0F0F0F1010111111121213131477
:1001800014151516161717181819191A1A1B1B1CEF
:100190001D1D1E1E1F202021222223242425262649
:1001A000272829292A2B2C2D2D2E2F30313232337E
:1001B0003435363738393A3B3C3D3E3F4041424387
:1001C0004445464748494A4C4D4E4F50515354556B
:1001D0005658595A5B5D5E5F616264656668696B1B
:1001E0006C6D6F7072737577787A7B7D7E80828399
:1001F0008587888A8C8E8F91939596989A9C9EA0DD
:10020000A2A3A5A7A9ABADAFB1B3B5B7BABCBEC0E9
:10021000C2C4C6C9CBCDCFD1D4D6D8DBDDDFE2E4B2
:10022000E7E9EBEEF0F3F5F8FAFDFF2223252628A7
:10023000292A2C2D2F3032333536383A3B3D3E407B
:1002400042434547494A4C4E5051535557595A5CC1
:100250005E6062646668696B6D6F71737577797BD8
:100260007D7F81838587898A8C8E90929496989AD7
:100270009C9E9FA1A3A5A7A8AAACAEAFB1B3B4B6EC
:10028000B8B9BBBCBEBFC1C2C3C5C6C7C9CACBCC47
:10029000CDCED0D1D2D2D3D4D5D6D7D7D8D9D9DA1A
:1002A000DADBDBDBDCDCDCDCDCDDDDDDDDDCDCDC8F
:1002B000DCDCDBDBDBDADAD9D9D8D7D7D6D5D4D3B7
:1002C000D2D2D1D0CECDCCCBCAC9C7C6C5C3C2C18C
:1002D000BFBEBCBBB9B8B6B4B3B1AFAEACAAA8A7E9
:1002E000A5A3A19F9E9C9A98969492908E8C8A89A1
:1002F000878583817F7D7B79777573716F6D6B697E
:1003000068666462605E5C5A5957555351504E4C52
:100310004A4947454342403E3D3B3A383635333201
:10032000302F2D2C2A292826252322040005000100
:1003300000010001000100010001000660FF0961E9
:10034000A1010962150026FF0095207508810209A8
:1003500063150026FF00952075089102C00501096C
:1003600006A101050719E029E71500250195087583
:100370000181029501750881010507190029FF1502
:100380000026FF009506750881000508190129055A
:10039000950575019102950175039101C00902420D
:1003A00000020100A0FA0904000001030101000994
:1003B0002111010001224000070581030800010905
:1003C00004010002030000000921110100012222A2
:1003D0000007058203200001070503032000011226
:1003E000010002000000084B854B210100010200C2
:1003F000010A0332004B0045005900000016034576
:1004000000640064006400640064006400640064CC
:100410000079000000040309040011241FBECFEF7F
:10042000D2E0DEBFCDBF04B603FE18C080917201DA
:1004300090917301A0917401B09175018730904B38
:10044000A740B04B59F410927201109273011092B0
:10045000740110927501E0E0F8E1099521E0A8E14E
:10046000B1E001C01D92A237B207E1F711E0A0E0B0
:10047000B1E0EAEDFDE202C005900D92A831B107AE
:10048000D9F70E9442120C94CE160C9400002091D1
:10049000E4003091E50095E6A9012091EC00822F5F
:1004A000817020FF06C08091E80080FF06C080E0D8
:1004B00008952091E80022FD1AC0809160018823F0
:1004C00089F0853089F08091EB0085FD0FC0209187
:1004D000E4003091E50042175307F9F29150E1F63C
:1004E00084E0089582E0089583E0089581E008950E
:1004F000EF92FF920F931F93CF937C018B010E9489
:100500004702C82F811117C08091E80085FD0BC0FC
:100510008091E8008E778093E8000E94470288234C
:1005200099F3C82F08C0F70181917F018093F100F2
:100530000150110949F78C2FCF911F910F91FF9016
:10054000EF9008958091620187FF13C08091E800C9
:1005500082FF06C08091E8008B778093E80004C09A
:10056000809160018111F2CF08958091600188230C
:10057000D9F38091E80080FFF8CF8091E8008E7772
:10058000ECCF982F9093E900242F762F50E0891715
:1005900031F07091EC002091ED005091F00021FDC0
:1005A00007C09F5F953071F78093E90081E008955F
:1005B0003091EB003E7F3093EB003091ED003D7FBA
:1005C0003093ED003091EB0031603093EB0070938D
:1005D000EC002093ED005093F0002091EE0027FDF9
:1005E000E0CF80E00895FC0180916801909169015D
:1005F00086179707A0F06115710529F49091E8001E
:100600009E779093E80090E06115710551F4911187
:1006100008C08091E80082FF32C080E00895BC01EC
:10062000F2CF809160018823B1F18530B1F18091E2
:10063000E80083FD2EC08091E80082FDEACF809122
:10064000E80080FFE1CF2091F20030E061157105F4
:1006500019F02830310558F091E02830310509F0C3
:1006600090E02091E8002E772093E800CDCF819193
:100670008093F100615071092F5F3F4FE7CF809168
:100680006001882341F0853041F08091E80083FFCC
:10069000C0CF81E0089582E0089583E00895089531
:1006A00008950895089508958091550108952FB7EC
:1006B000F89480916A0190916B01A0916C01B091C6
:1006C0006D012FBF0895E0915101F09152013097D3
:1006D00021F00190F081E02D099480E00895FA0165
:1006E000811101C0FB01099480914C01982F9E7FDC
:1006F00029F48170826080934C0108958231E8F37F
:1007000081708061F8CFAF92BF92CF92DF92EF926B
:10071000FF920F931F93CF93DF938901E42FF0E0B3
:10072000E55DFE4F611115C09491392FE92FD80175
:100730001196EC9311979C9312963C93DF91CF9175
:100740001F910F91FF90EF90DF90CF90BF90AF90EF
:100750000895C82FD0E0E62EF12CE4914E2FAE2E56
:10076000B12CCE0166E070E00E943A16CC24CA9407
:10077000D12CB6010E944B16DB01CC0FDD1FCB0143
:1007800065E570E00E943A16C81BD90B8C2F880FC4
:10079000C80FC6018E199F09B5010E943A16392F5C
:1007A000D0E0CE01B7010E943A16692F70E0C60171
:1007B000861B970BB5010E943A16292FC6018C1B88
:1007C0009D0BB7010E943A16692F70E0C601861B87
:1007D000970BB5010E943A16892FA230B10589F016
:1007E00040F4109709F4A3CF119779F0932F322F8B
:1007F0009ECFA430B10561F078F0169709F497CF39
:10080000F5CF9E2FE32F382F92CF9E2FE22F8FCF41
:10081000932F3E2FE82F8BCFE32F342F922F87CFAC
:1008200080E00895ECE1F1E09191891303C0DF01CC
:1008300011971C9291E0E232F907B1F70895ACE10B
:10084000B1E0EFEF90E02D91821751F0EF3F19F4F6
:10085000211101C0E92F9F5F9630A9F7EF3F09F4FE
:1008600008950E2E000CFF0BE65EFE4F8283089566
:10087000982F92959F7011F0892F94E0282F26953C
:10088000269511F09E5F822F869509F09F5F892F34
:100890000895CF93C9B1C6FBCC27C0F981E0C82722
:1008A000489933C082E0C82BC09333018091340152
:1008B000C81749F081E0809324010E945703909368
:1008C000230180932201C093340180912401882365
:1008D000C9F020912201309123014FB7F894809103
:1008E0006A0190916B01A0916C01B0916D014FBFB5
:1008F000821B930B459730F08091340180933D012A
:100900001092240181E0CF91089580E0CCCFCF9365
:10091000DF93EC0181E08093E9008FEF9091E80094
:10092000815095FD06C095ED9A95F1F70000811173
:10093000F5CF8091E80085FF14C050E040E068E00A
:1009400070E0CE010E9478028091E8008E7780935B
:10095000E80088E0FE01A6E5B1E001900D928A95DD
:10096000E1F7DF91CF91089581E08093E00080E28C
:100970008093D8001092C9008FE19EE40197F1F7AF
:1009800000C0000087E090EBDC018093720190933F
:100990007301A0937401B093750188E19CE00FB6D8
:1009A000F894A895809360000FBE90936000FFCFED
:1009B00080914C0180FD0CC01092470110924601BD
:1009C0001092480110924A011092490110924B0175
:1009D0003D9A38B13F7D28B120624FB7F89486E444
:1009E00091E0FC015191CF0168E028B9000000C0FE
:1009F00057FF38B9550F000000C000C000C038B91B
:100A000000C06A9591F7F1E08C349F0751F74FBF12
:100A10008FE594E00197F1F700C0000008959091F0
:100A20004C0190FF0EC080934701609346014093B4
:100A3000480180934A016093490140934B010C9413
:100A4000D8040895CF93DF9300D00F92CDB7DEB7CF
:100A500090914C0190FF0AC09E012F5F3F4F0E9472
:100A600083034B8169818A810E940F050F900F904B
:100A70000F90DF91CF910895CF93DF93EC01ECE4D9
:100A8000F1E0438162818C810E9422058C818F5F1D
:100A90008C83DF91CF910895CF93DF93EC01EC81AC
:100AA000F0E0E55DFD4F4491ECE4F1E0628181818D
:100AB0000E9422058C818F5F8C83DF91CF910895F6
:100AC000CF93DF93CBE2D0E060E0CE010E949A1694
:100AD0002196C11582E0D807B9F7DF91CF9108952B
:100AE000CF93DF93EBE2F3E0C591D4916D2F87E2D2
:100AF00090E00E949A166C2F88E290E00E949A166D
:100B0000EDE2F3E0C591D4916D2F89E290E00E946F
:100B10009A166C2F8AE290E0DF91CF910C949A168E
:100B2000CF93C82F6FEF811162E283E290E00E94C1
:100B30009A166FEFC11163E084E290E00E949A166A
:100B40006FEFC11168E185E290E0CF910C949A16A5
:100B500080E00E94900560E086E290E00E949A1694
:100B60000E9470050E94600581E00C9490050F932F
:100B70001F93CF93DF93C62FD0E0CC0FDD1FCC0F98
:100B8000DD1F50E0440F551FC40FD51F90E0880FA4
:100B9000991F880F991FC80FD91FCE0187960E94F1
:100BA0008616082F10E0102F0027CE0188960E948D
:100BB00086169801282BC901DF91CF911F910F91C3
:100BC0000895CF93DF9300D000D00F92CDB7DEB75A
:100BD000FC0195E0DE01119601900D929A95E1F7E6
:100BE000809136010E9438049A81892B69F44981E9
:100BF000423050F460E00F900F900F900F900F90E4
:100C0000DF91CF910C94B70590E080E00F900F90AA
:100C10000F900F900F90DF91CF91089583E290E0B5
:100C20000E948616823289F484E290E00E94861641
:100C3000833059F485E290E00E94861691E0883175
:100C400009F090E0892F8170089580E0FCCFCF9368
:100C500084E090E00E948616C82F82E290E00E9415
:100C60008616982F8C2FCF910895CF92DF92EF9216
:100C7000FF926B017C010E947403B701A60188E01A
:100C800090E0FF90EF90DF90CF900C94AC16EF9235
:100C9000FF920F931F93CF93DF9300D00F92CDB7A6
:100CA000DEB7082FF62E142FE22E80914C0180FF24
:100CB00028C0E82FE695F0E0E25FFE4F9081909328
:100CC00044018E7F823039F59E012F5F3F4F802F88
:100CD0000E9483034B8169818A810E940F050093E2
:100CE0004D01F0924E0110934F01EE2051F06091B2
:100CF0004C0170914D0180914E0190914F010E94E5
:100D000035060F900F900F90DF91CF911F910F91AB
:100D1000FF90EF900895923019F410914F01DFCFBA
:100D20009630E9F600914D01DACFECE4F1E0438131
:100D300028E0421B08F440E021E0628181810C94AC
:100D40004706ECE4F1E0438128E0420F08F44FEF5E
:100D500021E0628181810C944706ECE4F1E062813C
:100D600028E0621B08F460E021E0438181810C945B
:100D70004706ECE4F1E0628128E0620F08F46FEFCF
:100D800021E0438181810C944706ECE4F1E081810C
:100D900021E04381628188500C944706ECE4F1E045
:100DA000818121E043816281885F0C9447068091B4
:100DB0005001882319F081508093500160914C01BB
:100DC00070914D0180914E0190914F010C94350628
:100DD00080915001833018F48F5F809350016091AF
:100DE0004C0170914D0180914E0190914F010C94F6
:100DF000350690914C0190FF3DC09170811129C042
:100E0000926090934C01662351F060914C01709177
:100E10004D0180914E0190914F010E9435066091E5
:100E20004C01669570E041E050E08CE091E00E945A
:100E30006C16892BA9F01092450181E08093410145
:100E400020E040914F0160914E0180914D010C9442
:100E50004706893010F09061D4CF880F982BD1CFFE
:100E600081E0809345010E94570390933F01809356
:100E70003E01E3CF089580914C018695815009F49D
:100E800088E061E00C94F90680914C0186958F5FB3
:100E9000893008F081E061E00C94F90690914C01F2
:100EA00090FF07C09695981720F0961710F40C94B1
:100EB000440761E00C94F906ECE4F1E083E0808300
:100EC00011828FEF8283838314826081718182819A
:100ED00093810C94350669EE7EEF90E080E00E94ED
:100EE000B81660E082E090E00E949A1660E083E02D
:100EF00090E00E949A161092360160E084E090E043
:100F00000E949A1660E082E290E00E949A1660E0E9
:100F100085E090E00E949A1660E086E090E00E94F2
:100F20009A166FEF87E090E00E949A1640E050E03A
:100F3000BA0188E090E00E94AC1660E08DE090E09D
:100F40000E949A1640E050E0BA0188E190E00E94C9
:100F5000AC1660E087E190E00E949A1640E050E015
:100F6000BA018CE190E00E94AC1670E060E080E293
:100F700090E00E94B81640E050E0BA0188E190E0AD
:100F80000E94AC1680E00E9490050E94A80540E0F7
:100F900050E0BA018FE090E00E94AC1640E050E0D3
:100FA000BA0183E190E00C94AC1690E080E00E94DE
:100FB0009416893E9E4F11F40C940E0680E008951D
:100FC00080916E0190913501892B80931A0148E040
:100FD00050E06AE271E08AE191E00E947916892B83
:100FE000A9F088E0EAE1F1E0AAE2B1E001900D9217
:100FF0008A95E1F7E0915101F0915201309731F07B
:101000000280F381E02D8AE191E0099408958095B2
:1010100090916E01982390936E010C94E0078823C1
:1010200009F474C0823871F40E94630381FF6EC0BA
:1010300089E30E941F040E94E00789E30E941204D2
:101040000C94E007833859F40E94630380FF5EC06C
:1010500083E50E941F040E94E00783E5EFCF8438F8
:1010600059F40E94630382FF51C087E40E941F0469
:101070000E94E00787E4E2CF9CEF980F913AF0F2EC
:1010800090E2980F983088F4877021E030E0A90151
:1010900002C0440F551F8A95E2F7CA0180959091CE
:1010A0006E01892380936E01CBCF9BE5980F93301F
:1010B000B0F48091260190912701892B39F110928B
:1010C000270110922601E0915101F09152013097D1
:1010D000E9F00680F781E02D90E080E00994885ADD
:1010E0008731A0F48091280190912901892B71F01A
:1010F0001092290110922801E0915101F0915201C2
:10110000309721F00084F185E02DE6CF0895CF934C
:10111000C82F882309F46EC08238C1F40E9463038B
:1011200081FD68C089E30E941F040E94E0072FEF41
:1011300081EE94E0215080409040E1F700C0000033
:1011400089E30E941204CF910C94E0078338A1F444
:101150000E94630380FD4EC083E50E941F040E942D
:10116000E0072FEF81EE94E0215080409040E1F7BE
:1011700000C0000083E5E5CF8438A1F40E9463033A
:1011800082FD38C087E40E941F040E94E0072FEF11
:1011900081EE94E0215080409040E1F700C00000D3
:1011A00087E4CFCF8CEF8C0F813A68F4ECE1F1E06B
:1011B0008191C817C9F021E0E232F207C9F78C2FFC
:1011C0000E941F04C0CF80E28C0F883098F4C77053
:1011D00021E030E001C0220FCA95EAF780916E014C
:1011E000822B80936E01AFCF8C2F0E9412040E943D
:1011F000E007E5CFCF9108951F93CF93DF93182F8A
:10120000D0E0C0E0893311F4C0E5D0E0812F0E9426
:101210008708209731F4812FDF91CF911F910C9493
:101220000F088FE99FE00197F1F700C000002197B8
:10123000F0CF0F931F93CF93DF93C62FD42F022F9E
:10124000FC0182818823D1F0609371010E945703D1
:101250009093700180936F01C77021E030E001C06E
:10126000220FCA95EAF780916E01822B80936E015E
:10127000DF91CF911F910F910C94E0078091710144
:10128000681348C020916F01309170014FB7F894F6
:1012900080916A0190916B01A0916C01B0916D01F8
:1012A0004FBF821B930B883C9105A0F510E21D0FE8
:1012B0006D17F9F080E2860F883040F4C77081E046
:1012C00001C0880FCA95EAF70E940708183088F411
:1012D0002D2F277081E090E0AC0102C0440F551F14
:1012E0002A95E2F780916E01842B80936E010E9413
:1012F000E007802F0E94FC08183098F4D77081E036
:1013000001C0880FDA95EAF7DF91CF911F910F9115
:101310000C940708C77081E001C0880FCA95EAF7EE
:10132000F3CFDF91CF911F910F91089510926E012D
:10133000ECE1F1E086E0DF011D928A95E9F7109279
:1013400035010C94E0071F93CF93DF93CDB7DEB741
:10135000AA970FB6F894DEBF0FBECDBF82E691E02C
:101360002091F100FC012193CF01F1E08A369F0723
:10137000B9F780916301833009F46EC0B8F481300D
:1013800009F445C0823009F4AFC08091E80083FFC2
:1013900081C280916201909163019A3008F07AC213
:1013A000E92FF0E0E053F94E0C945F168A3009F40F
:1013B0008AC08B3009F46DC0893039F780916201A1
:1013C000813219F78091660190916701892BE9F6C6
:1013D0008091E800877F8093E8008091E80082FF99
:1013E00036C08091F200823031F48091F10081307A
:1013F00011F0863021F48091F100809355018091A5
:10140000E8008B778093E8000E94A202BECF809113
:101410006201813A09F0B9CF8091E800877F80931B
:10142000E8008091660190916701892B61F468E082
:1014300086E591E070E00E94F3028091E8008B77EE
:101440008093E800A2CF60E090E080E0F3CF80914D
:1014500060018111C2CF99CF80916201813A09F078
:1014600094CF8091660190916701892B09F08DCF0F
:101470008091E800877F8093E8008091E80080FFFA
:10148000FCCF80910D018093F1008091E8008E7770
:10149000B9CF80916201813209F077CF80916601E6
:1014A00090916701892B09F070CF8091E800877FC8
:1014B0008093E8000E94A2028091640180930D0154
:1014C0000E94960962CF80916201813209F05DCF5E
:1014D0008091E800877F8093E8000E94A2028091BB
:1014E00065018093540151CF80916201813A09F0E6
:1014F0004CCF8091E800877F8093E8008091E800DE
:1015000080FFFCCF80915401BECF803899F08238A3
:1015100009F0C0C1809166018F70853008F0BAC1B2
:101520008093E9008091EB0085FB882780F9109279
:10153000E90006C080915E0190915F019111826087
:101540009091E800977F9093E8008093F1001092CB
:10155000F1008091E8008E7799C1882309F487C152
:10156000823009F097C18091640181118AC1809114
:1015700066018F702FEF280F243008F08BC1809305
:10158000E9002091EB0020FF7CC1933031F4809181
:10159000EB0080628093EB0074C19091EB0090614E
:1015A0009093EB0021E030E001C0220F8A95EAF72A
:1015B0002093EA001092EA008091EB008860EACF65
:1015C000811168C1109164011F778091E3008078D8
:1015D000812B8093E3008091E800877F8093E8006F
:1015E0000E94A2028091E80080FFFCCF8091E3007E
:1015F00080688093E30082E0111183E080936001B2
:1016000049C18058823008F045C120916401309171
:1016100065012C3D83E03807A1F583E08A838AE2E7
:1016200089834FB7F894DE01139620E03EE051E243
:10163000E32FF0E050935700E49120FF03C0E295C0
:10164000EF703F5FEF708E2F90E0EA30C0F0C796EA
:101650008D939D932F5F243159F74FBF8091E80000
:10166000877F8093E8006AE270E0CE0101960E94D5
:10167000F3028091E8008B778093E8000BC1C0965D
:10168000E7CF4091660150916701832F99278330FE
:10169000910501F160F48130910509F471C0029760
:1016A00009F0F8C082E490E0EDE9F3E031C0813266
:1016B000910509F459C08232910509F0EBC041153A
:1016C000510509F467C04130510509F0E3C0EBE36F
:1016D000F3E01EC033272130310509F43DC0211548
:1016E000310561F02230310509F0D4C0E1EFF3E0BB
:1016F000E4918E2F90E0E1EFF3E007C0E5E1F4E044
:10170000E4918E2F90E0E5E1F4E0009709F4C2C087
:101710002091E800277F2093E80020916801309114
:1017200069018217930708F49C0140E021153105F7
:10173000B1F5411134C08091E80082FD9ACF8091CB
:101740006001882309F495CF853009F492CF809108
:10175000E80083FFF0CF8DCFEDEFF3E0E4918E2F23
:1017600090E0EDEFF3E0D1CF4115510571F041303C
:10177000510509F08FC089E090E0E8ECF3E0C8CFB4
:1017800082E190E0EFEDF3E0C3CF89E090E0EFEA93
:10179000F3E0BECF80E490E0EDE5F3E0B9CF8091D7
:1017A0006001882309F465CF853009F462CF809108
:1017B000E80083FD5ECF8091E80082FDBCCF809180
:1017C000E80080FFB3CF8091F20090E02115310551
:1017D00019F08830910550F041E0089709F040E099
:1017E0008091E8008E778093E800A0CF44914093E9
:1017F000F1003196215031090196E8CF803809F087
:1018000049C08091E800877F8093E8008091610162
:101810008093F1009ECE81113DC010916401123081
:10182000C8F58091E800877F8093E80010936101FC
:101830000E94A202112311F084E005C08091E30010
:1018400087FDFACF81E08093600142E061EC81E0A6
:101850000E94C10242E261EC82E00E94C10242E2C7
:1018600060EC83E00E94C1028091600113C080910E
:101870006401813079F481E0933009F080E0809355
:101880005F011092E9008091E800877F8093E80073
:101890000E94A2028091E80083FF0AC08091E800C4
:1018A000877F8093E8008091EB0080628093EB005B
:1018B000AA960FB6F894DEBF0FBECDBFDF91CF91D1
:1018C0001F9108956F927F928F929F92AF92BF92D5
:1018D000CF92DF92EF92FF920F931F93CF93DF93FC
:1018E000CDB7DEB72E970FB6F894DEBF0FBECDBFD3
:1018F0004A875B87E62E6C877D878E876111109201
:10190000350185E0FE013A96DE01119601900D92B7
:101910008A95E1F78C819D81892B39F0D980FA80F5
:101920008D2D8F218F3F09F088C32E960FB6F89426
:10193000DEBF0FBECDBFDF91CF911F910F91FF9002
:10194000EF90DF90CF90BF90AF909F908F907F905F
:101950006F900895C80182519F45409708F075C364
:101960008FEF91E00E9486168111DFCF02518BE24A
:10197000A82EB12C011131C01986188666246394F3
:1019800085010F5F1F4FC5010E9486168E831F823F
:10199000882359F29FEF980F933070F58F836E82F2
:1019A00042E0A40EB11CC8010E94861688878823D5
:1019B00009F4BBCF8E010A5F1F4FF801208122235B
:1019C000F9F2213009F053C0918182819130B1F454
:1019D0000E5F1F4F0E94FC0817C0A11422E0B20640
:1019E00009F4A3CFC5010E948616811101C00150E0
:1019F0003FEFA31AB30ABECF5801DCCF923039F4BF
:101A00000E5F1F4F0E9487080F5F1F4FD6CF933086
:101A100029F40E5F1F4F0E940F08F6CF943019F083
:101A20000F5F1F4FF1CF0E5F1F4F50E040E0D80116
:101A30001196F801F180682F6053770B9B016A3093
:101A4000710550F041505109F8F28FE99FE001977C
:101A5000F1F700C00000F6CFCA016AE070E00E9412
:101A60003A16A901480F591F8F2D8D01E0CFE22FA3
:101A7000F0E0EC55FF4F7490822F86958695869501
:101A800090E0FC01EC56FF4FE4902770F12C022E01
:101A900002C0F594E7940A94E2F7E1E0EE22FF2415
:101AA000FC01EC57FF4FC490D12C022E02C0D594FC
:101AB000C7940A94E2F7F1E0CF22DD24FC01EC5850
:101AC000FF4F8490912C02C0959487942A95E2F759
:101AD00021E082229924E114F10419F081EE0E94A0
:101AE0008708C114D10419F086EE0E948708872D5B
:101AF0000E94FC08CD2819F086EE0E940F08EF28FE
:101B000019F081EE0E940F08892809F47DCF8CE23C
:101B100061CF053F9CE5190709F464C008F45EC075
:101B200027E245EE66EE063FFCE51F0709F4ACC26E
:101B30008B81882309F4ADC21092710103302DE529
:101B4000120708F056C00A3F3CE5130730F4C801FD
:101B500082509C45449708F056C00E9427069093F7
:101B600038018093370101317CE5170709F41CC166
:101B700008F09BC009309CE5190709F407C108F07B
:101B800065C00530FCE51F0709F4F4C008F050C03B
:101B900003303CE5130709F4E3C008F0E7C0809187
:101BA0003701816002301C4509F4DDC060913701C6
:101BB0001091380184E090E00E949A16612F82E231
:101BC00090E00E949A160E949609AFCE27E245EE59
:101BD00065EE5AC226E241EE60EE56C227E245EEBD
:101BE00064EE52C226E241EE62EE4EC228E241E0CD
:101BF000EFCF01364DE5140709F4AFCF053A6DE597
:101C0000160709F4AACF06313CE5130709F04EC2C6
:101C100080916E018A7A91E009F490E09093250119
:101C20008111F0C089E20E941F040E94E0077DCE6E
:101C300080913701806207307CE5170709F493C073
:101C400008F4A0C08091370180648DC08091370175
:101C50008B7F0D309CE5190709F485C098F48091BD
:101C600037018E7F0B30FCE51F0709F47CC08091A3
:101C700037018C600C301C4508F475C08091370129
:101C80008D7F71C0809137018F7E0F303CE5130747
:101C900009F469C080913701877F00311C4508F441
:101CA00062C0809137018F7D5EC00D3F6CE51607E5
:101CB00009F476C050F505318CE5180709F482C0A7
:101CC00098F480913701837F0331ECE51E0709F416
:101CD0004AC008F46DC00E94960990913701892F7F
:101CE00097FB87F980583FC00B3F2CE5120709F49A
:101CF00045C008F051C08091380181600A3F1C4501
:101D000009F054CF8093380151CF01306DE51607AB
:101D100009F464C0A8F40F3F8CE5180709F44EC01D
:101D200080913801836001151D4560F38091380171
:101D3000982F909591708E7F892B90FB81F9E2CF3F
:101D40000136EDE51E0709F44FC0053AFDE51F0712
:101D500009F451C002301D4509F028CF60E03FC0B2
:101D60008091370182608093370120CF80913701C5
:101D70008460F9CF809137018860F5CF8091380178
:101D80008260C0CF809137018061EDCF0E949609BB
:101D9000809137018068E7CF809138018E7FB2CF84
:101DA000809138018D7FAECF809137018F7BDBCF63
:101DB0000E949609809137018F77D5CF80913801A5
:101DC0008C7FA0CF8091370182FB992790F921E089
:101DD000922790FB82F990FB83F9C5CF61E08EE0FA
:101DE00090E00E949A16E2CE90913701892F8F7E63
:101DF00094FF8061B8CF90913701892F8E7F90FF3B
:101E00008160B1CF85E30FCF85E34DC181608093C1
:101E10004C0161E086950E94F90687CD4BE357E0BF
:101E200064E477E00E946F0380CD44E457E06BE305
:101E300077E0F8CF45EC56E06EEC76E0F3CF4EEC71
:101E400056E065EC76E0EECF4DEA56E069EB76E0E1
:101E5000E9CF49EB56E06DEA76E0E4CF41EA56E09F
:101E600065E976E0DFCF47ED56E068EE76E0DACF61
:101E700048EE56E067ED76E0D5CF65E082E00E945F
:101E80004E0753CD0E9496098FEF94E3ECE081500A
:101E90009040E040E1F700C000000E94B4040E94BE
:101EA0006B0743CD8533910509F47CC0C99709F0D0
:101EB00029C1909137019370A1F020EE30E011C05C
:101EC000833E910509F453C070F5803E910509F4F5
:101ED0003FC0823E910509F015C18091370182FD16
:101EE0003FC0303208F021CD132F1F70832F807F29
:101EF00011F01295107F022F8B81882309F484C082
:101F0000112369F080E2820F883010F0211176C031
:101F100080916E01182B10936E010E94E007802FB4
:101F20000E94870802CD863E910561F1873E9105AA
:101F300071F1843E910509F0E5C08091380181FF7F
:101F4000D0CF8091370127EE30E084FD0DC0C9CF9E
:101F50008091370180FD49C09091380190FFC1CF39
:101F600023EE30E084FFBDCF30E020E0BACF809197
:101F7000370182FD3DC09091380190FD9ECF84FFD6
:101F8000B0CFF2CF8091370183FDDDCFAACF809112
:101F9000370183FD30C09091380191FFF0CF24EEDE
:101FA00030E09FCF8091370185FF9BCF29E230E061
:101FB00098CF8091370185FF94CF25E330E091CF12
:101FC0008091370186FF8DCF2AE230E08ACF809161
:101FD000370186FF86CF21E330E083CFC9019A9590
:101FE00081159F4108F47DCFBFCF29E330E079CF41
:101FF00022EE30E076CF26EE30E073CF80913501CF
:10200000182B1093350189CF822F0E940F081123BE
:1020100009F48BCC109580E2800F883010F001110C
:1020200006C080916E01182310936E01FECD809141
:102030003501182310933501F8CD61E0CE010196EA
:102040000E94E1058C01E11085CCC80180519F45BB
:10205000029708F46ACC033F3CE5130709F4BACDB4
:1020600008F057CD083D6CE5160709F4AFCD093DE2
:102070007CE5170709F4BACD073D8CE5180709F090
:1020800057CD26E241EE61EECE0101960E9419097C
:102090004CCC06316CE5160709F04BC08091250148
:1020A0008111B2CE89E20E941204BFCD01157CE5F8
:1020B000170709F4E7CE0E3D1C4509F4F0CE8091D8
:1020C00036010E9438048F2909F04ECFF1E0FD154A
:1020D00008F44ACF4D2D60E00E94B7059C0182387C
:1020E000910509F4E6CE08F0EBCE8133910509F4B1
:1020F00067CF08F0D7CE8932910509F45ACF8A9775
:1021000009F465CF283E310508F068CF213E31053E
:1021100008F0E7CE2130310509F4E3CE2115310571
:1021200009F4DFCEC9010497813A910508F4D9CEAC
:102130001BCF80916E0182720A3C9CE5190709F45D
:102140008DCE08F045C0053CFCE51F0709F472CEB2
:1021500050F5033C3CE5130709F460CE08F065CE6A
:10216000023C1C4509F0ABCF80914C0180FF4ECE64
:102170008E7F80934C0160914C0170914D01809154
:102180004E0190914F010E943506109245014FEF8C
:1021900060E772E0415060407040E1F700C000002D
:1021A0000E94D804C2CB073C7CE5170709F44CCE4B
:1021B00008F445CE083CECE51E0709F44ACE45E993
:1021C00056E061EA76E0093C1C4509F42BCE77CF56
:1021D0000E3C2CE5120709F450CE50F40C3C4CE5B3
:1021E000140709F445CE08F43ECE61E081E013CE39
:1021F000063D7CE5170738F4003D1C4508F095CBFB
:1022000068E086E03CCE0D351D4509F48ECB57CFF6
:102210001F920F920FB60F9211242F933F934F935B
:102220005F936F937F938F939F93AF93BF93CF935E
:10223000DF93EF93FF93D091E900DF708091EC0082
:10224000C82FC17080FDC0E81092E9008091F000B5
:10225000877F8093F00078940E94A3091092E90090
:102260008091F00088608093F000CD2BCF70C093F8
:10227000E900FF91EF91DF91CF91BF91AF919F91D5
:102280008F917F916F915F914F913F912F910F901F
:102290000FBE0F901F9018951F920F920FB60F92BE
:1022A00011242F933F934F935F936F937F938F935B
:1022B0009F93AF93BF93EF93FF938091E10082FFD1
:1022C00009C08091E20082FF05C08091E1008B7F10
:1022D0008093E1008091E10080FF17C08091E200CF
:1022E00080FF13C08091E2008E7F8093E200809196
:1022F000E20080618093E2008091D8008062809348
:10230000D80019BC85E0809360018091E10084FFD2
:102310002BC08091E20084FF27C084E089BD86E065
:1023200089BD89B5982F917080FFFBCF8091D8002F
:102330008F7D8093D8008091E1008F7E8093E100B3
:102340008091E2008F7E8093E2008091E2008160C4
:102350008093E20080916101882309F441C084E008
:1023600080936001809160018091E10083FF27C02C
:102370008091E20083FF23C08091E100877F8093FA
:10238000E10082E080936001109261018091E100A0
:102390008E7F8093E1008091E2008E7F8093E20047
:1023A0008091E20080618093E20042E060E080E0A2
:1023B0000E94C1028091F00088608093F000FF913C
:1023C000EF91BF91AF919F918F917F916F915F91AD
:1023D0004F913F912F910F900FBE0F901F90189526
:1023E0008091E30087FD93E090936001BBCF7894E8
:1023F0001F921FB61F9211248F939F93AF93BF9389
:1024000080916A0190916B01A0916C01B0916D0176
:102410000196A11DB11D80936A0190936B01A09359
:102420006C01B0936D01BF91AF919F918F911F90FF
:102430001FBE1F9018951F921FB61F9211248F93D5
:102440009F93AF93BF9380915301811113C08091EB
:102450006A0190916B01A0916C01B0916D01419660
:10246000A11DB11D80936A0190936B01A0936C0133
:10247000B0936D01BF91AF919F918F911F901FBE3F
:102480001F901895CDB7DEB7AA970FB6F894DEBFA8
:102490000FBECDBF84B7877F84BF0FB6F894A895D1
:1024A00080916000886180936000109260000FBE90
:1024B00080E890E00FB6F8948093610090936100FB
:1024C0000FBE80E194E0909319018093180110925F
:1024D000E2001092E1008091E00081608093E000D2
:1024E0008091D8008F778093D80019BC80916300C9
:1024F00081608093630010923201809163008E7F2F
:102500008093630081E0809332011092E200109288
:10251000E1008091D8008F778093D8008091D80017
:1025200080688093D8008091D8008F7D8093D800F8
:1025300084E089BD86E089BD89B5282F2170622E8F
:1025400080FFFACF109260011092610110925F013A
:1025500010925E0142E060E080E00E94C102809142
:10256000E1008E7F8093E1008091E20081608093A2
:10257000E2008091E20088608093E2008091E000B8
:102580008E7F8093E0008091E20084608093E2007F
:102590007894809160018823A1F01091E9001F7068
:1025A0009091EC00892F817090FD80E8182B10929B
:1025B000E9008091E80083FD0E94A3091F70109339
:1025C000E90082E084BD93E095BD9AEF97BD8093CA
:1025D0006E000E940E06811102C00E94A8058AB1F9
:1025E0008E7B8AB98BB181648BB910923D011092B8
:1025F0003401109233010E94D507811102C00E945C
:102600006B0782E090E00E94861680933A010E9458
:10261000270690933801809337010E9449048FE385
:102620009CE90197F1F700C000000E9449048091E5
:102630003D0180FF08C06FEF7FEF90E080E00E94D7
:10264000B8160E94B40483E090E00E94861680933E
:102650003601109235010E94E00780913901811105
:1026600033C00E94D507811104C00E946B070E94ED
:102670005C0788E090E00E948E1660934C01709396
:102680004D0180934E0190934F016E7F71F40E9433
:102690005C0788E090E00E948E1660934C01709376
:1026A0004D0180934E0190934F010E94740310924C
:1026B000450180914C0180FF04C060E086950E9436
:1026C000F90681E08093390180E091E09093520116
:1026D0008093510178E1C72ED12CE0E47E2EF4E006
:1026E000BF2EA6E0AA2E80916001853041F4809132
:1026F0006001853061F10E9496090E9463030E9487
:102700004904882359F08FB7F89440916A01509199
:102710006B0160916C0170916D018FBF80913D01E3
:1027200020913B01922F9827281358C08FEF8EA33A
:102730008FA318A60E9457038160782F9AA789A7B4
:102740004EA15FA168A58AA50E94620C67C0809116
:102750006001843009F1109253010FB6F894A895E6
:10276000C09260000FBE7092600083B7817F84606A
:1027700083BF83B7816083BF7894889583B78E7F4A
:1027800083BF0FB6F894A89580916000886180930C
:102790006000109260000FBE80915F01882309F4F1
:1027A000A6CF0E94490480913D01882309F49FCF60
:1027B000B9BCA9BC09B400FEFDCF8091D8008F7DC3
:1027C0008093D8008091E00082608093E000809147
:1027D000E00081FDFCCF0E94960989CF192F11706E
:1027E00090FD8FC091FFA2CF962D12E099A31AA25F
:1027F000812391E009F490E09BA30E94570381603C
:10280000782F9DA38CA349A15AA16BA18DA10E94F1
:10281000620C80913B01812780933B0180914501AF
:102820008823D1F180914401E0914C01E695E81BA9
:10283000E0934001823009F066C0F0E0E95DFE4FB0
:10284000E4910E2F10E06CE4E62E65E0F62E809108
:102850004101882361F0109241010E945703909337
:102860003F0180933E0110924301109242010E9469
:102870005703E0913E01F0913F018E1B9F0B8F3F6C
:102880009F4750F40E0F1F1F10933F0100933E010E
:102890008EE391E0F70109950E94630390913C015A
:1028A000891380933C0180916001843009F01BCF33
:1028B00083E08093E9008091E80082FF14CF80914B
:1028C000E80090E085FF0BC00E94470230E2E32E53
:1028D000F12C8E010F5F1F4F882391F191E08091C1
:1028E000E8008B778093E800992309F4FCCEE98116
:1028F000E150E33108F088C0F0E0E652F94E0C9464
:102900005F1690E073CF00ED17E042E5E42E43E060
:10291000F42E863009F09BCFF0E0EC5DFE4FE491A1
:102920000E2F10E05CE3E52E55E0F52E90CF809160
:10293000F100F80181938F01F1E0EF1AF10871F2D3
:102940008091E80085FDF3CF8091E8008B7780933C
:10295000E8000E944702882399F3C0CF1A8289E0D9
:102960008B831AC08A81823009F47BC18330D9F10C
:10297000813009F049C02FB7F89460916A017091D5
:102980006B0180916C0190916D012FBF0E946516C3
:102990006B837C838D839E8380916001843009F0FA
:1029A000A2CE1091E9001F709091EC00892F8170E8
:1029B00090FD80E8182B82E08093E9008091E80088
:1029C00080FF0DC050E040E060E270E0CE01019673
:1029D0000E9478028091E8008E778093E8001F7053
:1029E0001093E90080CE80913D01BACF8A81823078
:1029F00059F46B817C818D819E810E94651686E2EF
:102A000090E00E949A16C8CF8FEF8983C5CF4C8182
:102A10006B818A810E94B7059827892798279E8312
:102A20008D83BACF0D811E81102701271027EA80E0
:102A30008B81E80EFF24FF1CEE0CFF1CEE0CFF1C2C
:102A40008C8190E0880F991FE80EF91E612FC70155
:102A500087960E949A16602FC7018896D2CF0E944F
:102A600070059ACF8A818138C1F060F4803809F00E
:102A700093CF20E04B8160914E0180914D010E94E7
:102A800047068ACF823859F1833809F085CF20E094
:102A900040914F016C818B81F2CF60E08B810E946D
:102AA000F9069B8180914C01911111C08E7F80931A
:102AB0004C01109245012FEF80E792E021508040B9
:102AC0009040E1F700C000000E94D80465CF81600B
:102AD00080934C0160E086950E94F9065DCF8B8162
:102AE0008093500159CF8A81813899F030F4803831
:102AF00009F052CF80914F0133CF823891F0833863
:102B000009F04ACF80914D018B8380914E018C83D7
:102B100043CF80914C0180FF02C0869521CF80E099
:102B20001FCF809150011CCF60914C0170914D01DD
:102B300080914E0190914F010E9435062DCF80E18A
:102B40008A832ACF81E08A8385ED0ACFEA80FB80E1
:102B5000FE24EF24FE248E010F5F1F4F8C80800E19
:102B6000912E911CC7018B968016910609F414CF03
:102B7000E5EDEE16E1E0FE0650F40E948616F8013F
:102B80008483FFEFEF1AFF0A0F5F1F4FEBCFF801AF
:102B90001482F7CF0A811B81102701271027CE014D
:102BA00001964C01EC80E00EF12EF11CC8018B96D1
:102BB0000E151F0509F4F0CE053DE1E01E0720F4D7
:102BC000F40164810E949A16FFEF8F1A9F0A0F5F2B
:102BD0001F4FECCF0E946005DFCE81E0B1CFEA80CD
:102BE000FB80FE24EF24FE248E010F5F1F4F8C809C
:102BF000800E912E911CC70187960815190509F4BE
:102C0000CBCE24E0E216F10450F40E948616F801BF
:102C10008483FFEFEF1AFF0A0F5F1F4FECCFF8011D
:102C20001482F7CF0A811B81102701271027CE01BC
:102C300001964C01EC80E00EF12EF11CC801879644
:102C40000E151F0509F4A8CE0430110520F4F40177
:102C500064810E949A16FFEF8F1A9F0A0F5F1F4F21
:102C6000EDCF86E290E00E9486161B821C821D82B8
:102C70008E8392CE0024552704C0080E591F880F5A
:102C8000991F009729F076956795B8F37105B9F704
:102C9000802D952F0895AA1BBB1B51E107C0AA1FC9
:102CA000BB1FA617B70710F0A61BB70B881F991FED
:102CB0005A95A9F780959095BC01CD010895EE0F26
:102CC000FF1F0590F491E02D099469279627692745
:102CD0007827872778270895FC014150504030F02D
:102CE00001900616D1F73197CF01089588279927CB
:102CF0000895FB01DC0104C08D910190801921F43D
:102D000041505040C8F7881B990B0895F999FECFA0
:102D100092BD81BDF89A992780B50895A6E1B0E0EB
:102D200044E050E00C94C016A8E1B0E042E050E06E
:102D30000C94C016262FF999FECF92BD81BDF89A4A
:102D4000019700B4021639F01FBA20BD0FB6F894EF
:102D5000FA9AF99A0FBE08950396272F0E949B16A0
:102D60000E949A16252F0E949B16242F0C949B16C6
:102D70000196272F0E949B160C949A16DC01CB011A
:102D8000FC01F999FECF06C0F2BDE1BDF89A31967B
:102D900000B40D9241505040B8F70895F894FFCF19
:102DA000850AAD0A4A0CAD0A4A0CE00A010B4A0C2E
:102DB000FE0B0B0CAE14B214F614071512152F15DA
:102DC000321573159415041504159F15A215A61533
:0A2DD000CA15EA15ED15EF151216ED
:102DDA00540387045303500351034F0301010001B5
:082DEA000202020206060600C7
:00000001FF
