:100000000C94DE030C9425040C9425040C94250414
:100010000C9425040C9425040C9425040C942504BC
:100020000C9425040C9425040C9463210C941F213A
:100030000C9425040C9425040C9425040C9425049C
:100040000C9425040C9436280C9425040C94250457
:100050000C9478280C9454280C9425040C942504B2
:100060000C9425040C9425040C9425040C9425046C
:100070000C9425040C9425040C9425040C9425045C
:100080000C9425040C9425040C9425040C9425044C
:100090000C9425040C9425040C9425040C9425043C
:1000A0000C9425040C9425040C94250405010902E4
:1000B000A10185020901A100050919012905150001
:1000C00025019505750181029501750381010501E1
:1000D000093009311581257F950275088106093897
:1000E0001581257F950175088106050C0A380215D2
:1000F00081257F950175088106C0C005010980A191
:1001000001850319012AB700150126B7009501756D
:10011000108100C0050C0901A101850419012AA064
:1001200002150126A002950175108100C005010984
:1001300006A1018505050719E029E71500250195A8
:1001400008750181020507190029EF1500250195A1
:10015000F0750181020508190129059505750191C0
:1001600002950175039101C00660FF0961A10109B3
:1001700062150026FF0095207508810209631500AD
:1001800026FF00952075089102C005010906A1010E
:10019000050719E029E71500250195087501810279
:1001A0009501750881010507190029FF150026FF33
:1001B0000095067508810005081901290595057542
:1001C000019102950175039101C000010101010136
:1001D0000101010102020202020202020203030300
:1001E00003030303030404040404040405050505D0
:1001F0000506060606060707070707080808080990
:100200000909090A0A0A0B0B0B0C0C0C0D0D0D0E3B
:100210000E0E0F0F0F1010111111121213131414D0
:10022000151516161717181819191A1A1B1B1C1D45
:100230001D1E1E1F2020212222232424252626279E
:100240002829292A2B2C2D2D2E2F303132323334D0
:1002500035363738393A3B3C3D3E3F4041424344D6
:1002600045464748494A4C4D4E4F505153545556B8
:1002700058595A5B5D5E5F616264656668696B6C64
:100280006D6F7072737577787A7B7D7E80828385DF
:1002900087888A8C8E8F91939596989A9C9EA0A21F
:1002A000A3A5A7A9ABADAFB1B3B5B7BABCBEC0C229
:1002B000C4C6C9CBCDCFD1D4D6D8DBDDDFE2E4E7ED
:1002C000E9EBEEF0F3F5F8FAFDFFFFAA7F554022C7
:1002D00023252628292A2C2D2F3032333536383A3B
:1002E0003B3D3E4042434547494A4C4E5051535591
:1002F00057595A5C5E6062646668696B6D6F7173B2
:100300007577797B7D7F81838587898A8C8E9092B2
:100310009496989A9C9E9FA1A3A5A7A8AAACAEAFBD
:10032000B1B3B4B6B8B9BBBCBEBFC1C2C3C5C6C702
:10033000C9CACBCCCDCED0D1D2D2D3D4D5D6D7D7B3
:10034000D8D9D9DADADBDBDBDCDCDCDCDCDDDDDDFB
:10035000DDDCDCDCDCDCDBDBDBDADAD9D9D8D7D7F7
:10036000D6D5D4D3D2D2D1D0CECDCCCBCAC9C7C6A4
:10037000C5C3C2C1BFBEBCBBB9B8B6B4B3B1AFAEE2
:10038000ACAAA8A7A5A3A19F9E9C9A989694929088
:100390008E8C8A89878583817F7D7B797775737160
:1003A0006F6D6B6968666462605E5C5A595755533D
:1003B00051504E4C4A4947454342403E3D3B3A38F6
:1003C00036353332302F2D2C2A292826252322009A
:1003D000000000000000000000000101020304050D
:1003E00006080A0C0F1114181C2024292E33393F3B
:1003F000464C535B626A7179818A929AA2AAB2B919
:10040000C1C8CFD5DCE1E7EBF0F4F7FAFCFDFEFF65
:10041000FEFDFCFAF7F4F0EBE7E1DCD5CFC8C1B99B
:10042000B2AAA29A928A8179716A625B534C463F62
:1004300039332E2924201C1814110F0C0A08060524
:100440000403020101000000000000000000002B76
:100450000014001A000800150017001C0018000CFA
:100460000012001300260227022E022A002900048F
:10047000001600070009000A000B000D000E000F17
:1004800000330034000000AA00A900E1001D001B99
:100490000006001900050011001000360037003872
:1004A000000000280020022102E000E200E300003A
:1004B000002C0000002C000000105F115F500000B5
:1004C00000510052004F0035021E021F022002217F
:1004D000022202230224022502260227022A000108
:1004E00000010001004C003A003B003C003D003E92
:1004F000003F002D022E022F0230023102000001C7
:10050000000100010040004100420043004400455A
:10051000003202640201000100000001000100013C
:1005200000010001000100000001000000010000C6
:100530000001000100AB000000AA00A900AE0035D8
:10054000001E001F0020002100220023002400259F
:1005500000260027002A000100010001004C003A9B
:10056000003B003C003D003E003F002D002E002FD0
:100570000030003100000001000100010040004196
:1005800000420043004400450032006400010001C5
:100590000000000100010001000100010001000055
:1005A00000010000000100000001000100AB00009C
:1005B00000AA00A900AE000100005C0100010001DA
:1005C000000100010001000100010001004C0001D8
:1005D000000100010001000100BF5CC05C010001DE
:1005E0000001000100010001000100010000000104
:1005F00000010001000100C25CC35C0100010001B8
:1006000000010001000100010000000100010001E3
:1006100000010001000100000001000000010000D5
:1006200000010001000100000001000100010000C4
:1006300000000000000000000000000000000000BA
:100640000000007E0F00D4FFFFFFC700000078000D
:10065000000000000000002A2B280000000000001D
:100660000000000000000000000029000000002C35
:100670001E3420212224342627252E362D373827D4
:100680001E1F202122232425263333362E37381FE0
:100690000405060708090A0B0C0D0E0F10111213A2
:1006A0001415161718191A1B1C1D2F3130232D3540
:1006B0000405060708090A0B0C0D0E0F1011121382
:1006C0001415161718191A1B1C1D2F3130354C0024
:1006D00000000000000000000000010204060A0FF4
:1006E00017202C3A4A5D71879DB3C7DAE9F5FCFF04
:1006F000FCF5E9DAC7B39D87715D4A3A2C20170FE4
:100700000A060402010000000000000000000032A0
:10071000190A00047F3F1F643214643214783C1EAF
:100720001E140A0509025B00030100A0320904003F
:10073000000103010100092111010001224000070D
:1007400005810308000A09040100020300000009F2
:100750002111010001222200070582032000010768
:100760000503032000010904020001030000000941
:10077000211101000122BC000705840320000A1298
:10078000011001000000083745374500020102034F
:10079000010403300000001403500069006300638B
:1007A000006F006C006F0034003500000008035635
:1007B0000065006D000000040309040011241FBE41
:1007C000CFEFDAE0DEBFCDBF04B603FE27C08091D5
:1007D000F0029091F102A091F202B091F302873001
:1007E000904BA740B04BD1F41092F0021092F1025E
:1007F0001092F2021092F30214BE84B7877F84BF76
:100800000FB6F894A895809160008861809360008D
:10081000109260000FBEE0E0F8E3099522E0AAE93B
:10082000B1E001C01D92A03FB207E1F711E0A0E0E6
:10083000B1E0E8E4F5E502C005900D92AA39B107F0
:10084000D9F70E944E220C94502A0C940000E8ED37
:10085000F0E080818E7F80831092E2001092DA00B7
:100860001092E100A0EEB0E08C9181608C938081C9
:100870008F77808319BCA7EDB0E08C918E7F8C932D
:1008800080818F7E80831092B80208952091E400C9
:100890003091E50095E6A9012091EC00822F81704E
:1008A00020FF06C08091E80080FF06C080E0089528
:1008B0002091E80022FD1AC08091EB02882389F084
:1008C000853089F08091EB0085FD0FC02091E40018
:1008D0003091E50042175307F9F29150E1F684E0B8
:1008E000089582E0089583E0089581E00895EF92ED
:1008F000FF920F931F93CF937C018B010E944604BC
:10090000C82F811117C08091E80085FD0BC0809130
:10091000E8008E778093E8000E944604882399F3CC
:10092000C82F08C0F70181917F018093F100015029
:10093000110949F78C2FCF911F910F91FF90EF90E4
:100940000895CF93FC018091EB02843001F5C091B2
:10095000E900CF702091EC00922F917020FD90E87B
:10096000C92B82E08093E9008091E80080FF0CC0F1
:1009700050E040E060E270E0CF010E947704809197
:10098000E8008E778093E800CF70C093E900CF91A4
:1009900008958091E30287FF13C08091E80082FFF1
:1009A00006C08091E8008B778093E80004C08091B6
:1009B000EB028111F2CF08958091EB028823D9F3E5
:1009C0008091E80080FFF8CF8091E8008E77ECCF2F
:1009D000982F9093E900242F762F50E0891731F05B
:1009E0007091EC002091ED005091F00021FD07C0C6
:1009F0009F5F973071F78093E90081E0089530910F
:100A0000EB003E7F3093EB003091ED003D7F309363
:100A1000ED003091EB0031603093EB007093EC000F
:100A20002093ED005093F0002091EE0027FDE0CFE1
:100A300080E00895CF92DF92EF92FF920F931F9381
:100A4000CF93DF93C8EDD0E088818F7E8883E7ED78
:100A5000F0E080818160808384E082BF81E08093C8
:100A6000B80288818E7F888302EE10E0F801108240
:100A70001092DA0081EEC82ED12CF6011082888106
:100A80008F77888388818068888388818F7D888339
:100A900019BC1092EB021092E2021092E102109245
:100AA000E00290EEE92EF12CF70180818B7F8083AC
:100AB00088818160888342E060E080E00E94E804F1
:100AC000F60180818E7F8083F80180818160808340
:100AD000808188608083F70180818E7F8083888118
:100AE00080618883DF91CF911F910F91FF90EF90EC
:100AF000DF90CF900895FC018091E9029091EA0285
:100B000086179707A0F06115710529F49091E80008
:100B10009E779093E80090E06115710551F4911172
:100B200008C08091E80082FF34C080E00895BC01D5
:100B3000F2CF8091EB028823C1F18530C1F1809121
:100B4000E80083FD30C08091E80082FDEACF80910B
:100B5000E80080FFE1CF8091F3002091F200382F70
:100B60006115710519F02830310558F091E02830F1
:100B7000310509F090E02091E8002E772093E800FD
:100B8000CBCF81918093F100615071092F5F3F4F6E
:100B9000E7CF8091EB02882341F0853041F08091CE
:100BA000E80083FFBECF81E0089582E0089583E0EE
:100BB00008958091EB02843011F482E0089581E081
:100BC000089508958091BF02089590919B02803FFF
:100BD00041F480919C0287FD10929C02992371F050
:100BE0000895813F29F480919C021816ACF3F6CF4A
:100BF000823F81F497FFF2CF10929B0280919C027A
:100C000090919D02892B90919E02892B49F7109219
:100C100096020895833F19F4191674F3DFCF893FC4
:100C200039F480919D021816CCF610929D02D6CF11
:100C30008A3F29F480919D0287FFD0CFF6CF8B3F6A
:100C400039F480919E0287FFC9CF10929E02C6CFD1
:100C50008C3F29F480919E021816BCF3BFCF843FCD
:100C600031F480919A028E7F80939A02B7CF853FAC
:100C700021F480919A028D7FF7CF863F21F48091F5
:100C80009A028B7FF1CF873F21F480919A02877F70
:100C9000EBCF883F21F480919A028F7EE5CF8D3F84
:100CA00031F4809179028E7F8093790297CF8E3FC5
:100CB00021F4809179028D7FF7CF8F3F09F08ECF9D
:100CC000809179028B7FF0CF8091790280FD16C0F0
:100CD00081FD16C082FD16C0809196028823A1F086
:100CE000883280F428E0829FC001112468E270E01D
:100CF0000E941B29862F672B39F0089582E0089502
:100D000084E0089588E0089581E008958091790253
:100D100080FD14C081FD14C082FD16C08091960232
:100D2000882381F0843180F422E3829FC001112462
:100D300064E170E00E941B29862F08958CE00895DD
:100D400089E1089585E0089582E30895803F31F4B4
:100D50000E948606819580939C020895813F19F434
:100D60000E948606F8CF823F31F40E948606819564
:100D700080939B020895833F19F40E948606F8CF62
:100D8000893F29F40E94640680939D0208958A3F5A
:100D900021F40E9464068195F7CF8B3F31F40E94C5
:100DA0006406819580939E0208958C3F19F40E94F9
:100DB0006406F8CF843F31F480919A028160809379
:100DC0009A020895853F21F480919A028260F7CFBC
:100DD000863F21F480919A028460F1CF873F21F40D
:100DE00080919A028860EBCF883F21F480919A022B
:100DF0008061E5CF8D3F31F48091790281608093ED
:100E0000790208958E3F21F4809179028260F7CFB4
:100E10008F3FB9F7809179028460F1CF9C014FB781
:100E2000F8948091B4029091B502A091B602B0916D
:100E3000B7024FBF821B930B08952FB7F894809190
:100E4000B4029091B502A091B602B091B7022FBF43
:100E50000895E0918A02F0918B02309749F082E088
:100E6000809399020480F581E02D89E992E009954B
:100E70000E941D07909395028093940208952091FB
:100E80001B012223C9F02091870227FF15C0E62FFE
:100E9000E695E695E695EE31D8F4E80FF92FF11DC9
:100EA000677021E030E001C0220F6A95EAF72095D3
:100EB0008281282322830895FC013296089621918D
:100EC000621303C0DF0111971C92E817F907B9F705
:100ED000089520911B012223C1F02091870227FF52
:100EE00014C0E62FE695E695E695EE31F8F4E80FA6
:100EF000F92FF11D677021E030E001C0220F6A95E3
:100F0000EAF78281822B82830895FC0132962FEFCB
:100F100030E04191641751F02F3F19F4411101C0A5
:100F2000232F3F5F3630A9F72F3F09F40895820F32
:100F3000911D27FD9A95FC016283089580917402AA
:100F4000811110927402089580917302909172023F
:100F5000892B90917102892B80939A019091740250
:100F60009923A1F0892B80939A0180911B018823FA
:100F700041F18091870287FF24C08EE1ECE9F1E026
:100F800090E0815000F591110E949E07E0918A0245
:100F9000F0918B023097E1F080911B01882359F08A
:100FA0008091870287FF07C080919A0180939B01FF
:100FB00085E080939A010280F381E02D8AE991E037
:100FC000099486E0DBCF21912223D9F29F5FD9CF0C
:100FD00008952FE0929F800D1124982F9770869589
:100FE0008695869525E0829FF0011124E85BFD4FF0
:100FF00050E040E080E0219130E0092E02C03695BB
:1010000027950A94E2F721703327042E01C0220F9E
:101010000A94EAF7822B4F5F5F4F4530510559F72D
:1010200008952FE0929F800D1124982F977041E032
:1010300001C0440F9A95EAF786958695869595E0C6
:10104000899FF0011124E85BFD4F90E080E070E0A3
:101050005191DF0111979B01082E02C0369527950B
:101060000A94E2F7217021952527242325272C9324
:1010700001968530910561F708958091470290911E
:101080001602981301C008958F5F8770FACF8823E6
:1010900041F08095909173028923809373020C94A0
:1010A000A4070895882339F090917302982B9093A8
:1010B00073020C94A407089520910C0230910D0244
:1010C0002817390771F090930D0280930C02E0917C
:1010D0008A02F0918B02309721F00084F185E02D97
:1010E0000994089520910A0230910B0228173907BC
:1010F00071F090930B0280930A02E0918A02F091C2
:101100008B02309721F00680F781E02D0994089535
:1011100010927202109271020E94A40786E0E9E91F
:10112000F2E0DF011D928A95E9F710929602109283
:1011300079020E94290790E080E00E94720890E006
:1011400080E00C945C086093EC027093ED02809355
:10115000EE029093EF020C9488080F931F93609116
:10116000EC027091ED028091EE029091EF028B0102
:101170009C0106701127222733270630110521050F
:10118000310529F468601F910F910C94A308677FC3
:10119000FACF0F931F9341E050E060E070E004C08D
:1011A000440F551F661F771F8A95D2F7CB01BA01EE
:1011B00060957095809590950091EC021091ED02EC
:1011C0002091EE023091EF0260237123822393235A
:1011D0001F910F910C94A308909170028095892320
:1011E00080937002282F277071F4282F082E000C8E
:1011F000330B9217130639F08595859585950E94D6
:10120000C9081092700208950F931F9341E050E0B7
:1012100060E070E004C0440F551F661F771F8A9579
:10122000D2F78091EC029091ED02A091EE02B09184
:10123000EF028A019B01082B192B2A2B3B2BC9019A
:10124000B8011F910F910C94A308609375027093DD
:10125000760280937702909378020C948808882312
:10126000B1F19CEF980F913A38F4682F8AE991E038
:101270000E943F070C94A40790E2980F983088F4DE
:10128000877021E030E0A90102C0440F551F8A9504
:10129000E2F7CA01809590917302892380937302CB
:1012A000E9CF9BE5980F933020F490E080E00C9418
:1012B000720898E5980F973120F490E080E00C9444
:1012C0005C08803F20F00E94E5050C9429070895F2
:1012D000CF93C82F882309F46FC08CEF8C0F813A0D
:1012E000C0F580911B01882311F18091870287FF4F
:1012F0001EC0EC2FE695E695E695F0E0E656FE4F2B
:10130000828190E04C2F477021E030E002C0220F34
:10131000331F4A95E2F782239323892B91F06C2F98
:101320008AE991E00E943F070E94A4070AC0ECE905
:10133000F1E082EA91E02191C21789F38E179F07AD
:10134000D1F76C2F8AE991E00E946907CF910C9444
:10135000A40780E28C0F883068F4C77021E030E089
:1013600001C0220FCA95EAF780917302822B809305
:101370007302ECCFEBE5EC0FE33040F4F0E0E95B17
:10138000FE4F808190E0CF910C947208E8E5EC0F5D
:10139000E73150F4F0E0EE0FFF1FE65BFE4F808177
:1013A0009181CF910C945C08C03F30F08C2F0E944B
:1013B000A606CF910C942907CF910895E0918A0257
:1013C000F0918B02309721F00190F081E02D09948B
:1013D00080E00895CF92DF92EF92FF928C3724E164
:1013E000920750F469E070E00E940729CB01FF905A
:1013F000EF90DF90CF900895B0E0A0E0BC01CD0168
:101400006A50774D8F4F9F4F982F872F762F6627E3
:1014100025EF38E241E050E00E941F2A69017A017D
:10142000CA01B9010E94DD289B01AC01C701B601C8
:101430000E94DD28672F782F892F99276115710564
:1014400021E08207910591F66FEF7FEFCFCF8D30CE
:10145000E0F481111BC090918000977F90938000F1
:101460002F98282F30E0AFEFBFEF0E94412A2CE0E9
:1014700030E040E050E00E941F2AC9010E94EA09C2
:1014800090938D0080938C0008958CE09091800063
:10149000986090938000E5CF282F220F220F220F13
:1014A0009091A9029770922B9093A902987F21E0C6
:1014B00009F420E09091A90220FB90F99093A902F1
:1014C0000C94270AFA01811101C0FB010994809153
:1014D000B902982F9E7F29F4817082608093B902AF
:1014E00008958635E8F381708465F8CFAF92BF9296
:1014F000DF92EF92FF920F931F93CF93DF93082F0A
:10150000162FE901E42FF0E0E653FE4F611110C001
:10151000E4915E2F4E2F4983E8835A83DF91CF9168
:101520001F910F91FF90EF90DF90BF90AF900895C3
:10153000E62EF12C4491D42EE42FF0E026E0829F99
:10154000C00111242FEF30E0B9010E940729802F3C
:1015500090E0880F991F55E5569FD001579FB00D19
:1015600011248A1B9B0B982F990F890F5901AE18D4
:10157000BF08AE9ED001AF9EB00DBE9EB00D11242F
:101580005B2F189F80011124012F11275901A01AE8
:10159000B10AAE9E8001AF9E100DBE9E100D1124AB
:1015A0005901A81AB108AE9CC001AF9C900DBE9C19
:1015B000900D1124892F9927281B390B2E9FC001CC
:1015C0002F9F900D3E9F900D1124E92F62307105E1
:1015D000A1F050F46115710509F49DCF61307105DA
:1015E00081F0EB2F512F97CF6430710569F080F0B7
:1015F0006630710509F48FCFF4CFE42F4B2F592FAC
:101600008ACFE42F412F87CFEB2F542F492F83CF41
:101610004B2F5D2DE12F7FCF9091870292FF06C067
:10162000282F28712830F9F4877F846093FF06C043
:10163000282F28712831F1F4877E84612091880257
:1016400020FF06C0382F38713830D9F4877F816089
:1016500021FF06C0282F28712831D1F4877E8161AF
:1016600094FD877E0895282F24712430F9F68B7F0E
:101670008860DCCF282F2471243101F78B7E8861AC
:10168000DDCF382F3171313019F78E7F8860E0CF90
:10169000282F2171213121F78E7E8861E1CFCF93F0
:1016A000DF9300D00F92CDB7DEB79091EB0294306C
:1016B00011F589837B836A839093E9008FEF909182
:1016C000E800815095FD06C095ED9A95F1F7000070
:1016D0008111F5CF8091E80085FF0DC050E040E01A
:1016E00063E070E0CE0101960E9477048091E800EB
:1016F0008E778093E8000F900F900F90DF91CF913D
:101700000895CF93DF93EC010E94D905823011F048
:10171000843031F4BE0184E0DF91CF910C944F0B03
:10172000DF91CF910895BC0183E00C944F0BCF93D0
:10173000DF93EC010E94D905823011F08430F9F476
:1017400084E08093E9008FEF9091E800815095FD4F
:1017500006C095ED9A95F1F700008111F5CF8091C3
:10176000E80085FF0CC050E040E066E070E0CE018C
:101770000E9477048091E8008E778093E800DF91E3
:10178000CF910895CF93DF93EC010E94D905823069
:1017900011F08430B9F580911B018823B1F180915B
:1017A000870287FF32C060E284E08093E9008FEF18
:1017B0009091E800815095FD06C095ED9A95F1F75E
:1017C00000008111F5CF8091E80085FF1BC080915A
:1017D0001B0170E050E040E0811104C050E040E0A7
:1017E00068E070E0CE010E9477048091E8008E7777
:1017F0008093E80080E2FE01A0ECB2E001900D923F
:101800008A95E1F7DF91CF91089568E081E0CDCF2F
:1018100081E08093E00080E28093D8001092C900BC
:101820008FE19EE40197F1F700C0000087E090EBA4
:10183000DC018093F0029093F102A093F202B09346
:10184000F30288E19CE00FB6F894A89580936000BD
:101850000FBE90936000FFCFCF93C82F0E946809FE
:10186000C93349F42FEF87EE93E021508040904038
:10187000E1F700C000008C2FCF910C942F090F933B
:101880001F93CF93DF93C62FD42F022FFC018281A9
:101890008823A1F060930E020E941D079093090215
:1018A00080930802C77081E001C0880FCA95EAF7EB
:1018B000DF91CF911F910F910C94520810910E025D
:1018C000161335C080910802909109020E940E07FC
:1018D000883C910560F5C0E2CD0F1D17B9F080E29C
:1018E000810F883040F4177081E001C0880F1A958D
:1018F000EAF70E944708C83048F481E09D2F9770AE
:1019000001C0880F9A95EAF70E945208802F0E9422
:101910002C0CC83098F4D77081E001C0880FDA959C
:10192000EAF7DF91CF911F910F910C944708C77090
:1019300081E001C0880FCA95EAF7F3CFDF91CF911C
:101940001F910F9108958091B90280FD0AC0E0ECCB
:10195000F1E0118210821282339651E0EB3DF507DF
:10196000C1F73F9A38B13F7728B120684FB7F89454
:1019700080EC91E0FC015191CF0168E028B90000B2
:1019800000C057FF38B9550F000000C000C000C0AC
:1019900038B900C06A9591F7F1E08B3D9F0751F788
:1019A0004FBF8FE594E00197F1F700C00000089564
:1019B000EF92FF921F93CF93DF93EC0180ECE82E20
:1019C00081E0F82E10E08C8197014091BC0260917B
:1019D000BB02810F0E94760A145E83E0E80EF11CC0
:1019E0001C3F89F70E94A30C9A818C8190FF08C04C
:1019F0008F5F8C83DF91CF911F91FF90EF900895BF
:101A00008150F7CFBF92CF92DF92EF92FF920F9368
:101A10001F93CF93DF93FC018281DD24DA9480FD54
:101A200002C0DD24D39400EC11E0D0E0C0E029E056
:101A3000B22EF80111821082128294E0E92EF12C6C
:101A4000C12C8091BD018C0D8A300CF43DC06B2DF2
:101A50000E94F928892F082E000C990B8C179D07DE
:101A600091F48091BC028E9DA0018F9D500D112498
:101A7000559547955595479598016091BB02809182
:101A8000BA020E94760ACD0CF1E0EF1AF108C9F60D
:101A900021960D5F1F4FC930D10559F60E94A30C46
:101AA0008091BD0191E0D91215C0811111C088E06B
:101AB0008093BD01DF91CF911F910F91FF90EF9027
:101AC000DF90CF90BF90089587FFC5CF875FC3CFCA
:101AD0008150EECF90E00196BE010E941B29E8CF15
:101AE0000F931F93CF93DF93C0ECD1E0FE011182DF
:101AF00010821282339681E0EB3DF807C1F710E0C7
:101B000000E08091BE01082E000C990B0817190700
:101B10008CF180911001082E000C990B8017910711
:101B20004CF19E014091BC026091BB028091BA02CF
:101B30000E94760A0F5F1F4F23960930110509F79F
:101B40000E94A30C80910F019091BE01980F909379
:101B5000BE0120911001280F20931001121614F4D9
:101B600098301CF0819580930F01DF91CF911F91E8
:101B70000F910895198218821A82DCCFEF92FF929A
:101B80000F931F93CF93DF93EC018C819D8101967E
:101B9000817099279D838C8380ECE82E81E0F82E5C
:101BA00010E005E5812F86952C813D81820F932FD2
:101BB000911D817097014091BC026091BB02809F92
:101BC000802D11240E94760A1F5F83E0E80EF11C2D
:101BD000193041F7DF91CF911F910F91FF90EF9056
:101BE0000C94A30CEF92FF920F931F93CF93DF936C
:101BF0008C01C0ECD1E0F12CE12CF80194816091D2
:101C0000BB028091BA02F4E0EF16F104FCF49923D0
:101C1000F9F09E014091BC020E94760A2FEFE21A71
:101C2000F20A239689E0E816F10439F70E94A30C22
:101C3000F801848190E00196817099278483DF9177
:101C4000CF911F910F91FF90EF900895992309F381
:101C50009E0140E0E1CF9091B90290FF0CC0E0EC12
:101C6000F1E0818360834283339691E0EB3DF90795
:101C7000C1F70C94A30C08950F931F93CF93DF9398
:101C800000D00F92CDB7DEB78C018091BF018111DA
:101C90000AC09E012F5F3F4F4FEF6FEF0E94760A01
:101CA0008A818093BF01F8016481613069F080917D
:101CB000BF0140E0662361F040E0623011F44091E2
:101CC000BF0180E060E004C06091BF0140E080E0BF
:101CD0000E942B0EF801848190E0019663E070E091
:101CE0000E941B2984830F900F900F90DF91CF915A
:101CF0001F910F910895CF93DF9300D00F92CDB72E
:101D0000DEB79091B90290FF0AC09E012F5F3F4F4E
:101D10000E94760A4B8169818A810E942B0E0F9066
:101D20000F900F90DF91CF910895CF93DF93EC0147
:101D3000EC81F0E0E153FD4F4491E9EBF2E0628188
:101D400081810E947B0E8C818F5F8C83DF91CF918C
:101D50000895CF93DF93EC01E9EBF2E043816281D8
:101D60008C810E947B0E8C818F5F8C83DF91CF9161
:101D700008957F928F929F92AF92BF92CF92DF92FF
:101D8000EF92FF920F931F93CF93DF9308E711E039
:101D9000AFE7B2E0712CCC24C394D12CE801899137
:101DA0008E01E82FE295EF70F0E091A18F7076013F
:101DB00001C0EE0C8A95EAF7892F8E2981A392A1A2
:101DC0007E2D7095972392A3D0EADA95F1F79CE7E0
:101DD000A92E91E0B92E50E040E030E020E0E5018E
:101DE00069915E01862E82948FE08822912CE40115
:101DF00088A190E06F7002C0959587956A95E2F78B
:101E000080FD5CC0C601042E02C0880F991F0A9491
:101E1000E2F7282B392B4F5F5F4F4F305105F9F612
:101E200081A1872381A382A1E82AE2A28D919C91BE
:101E300011972817390709F444C011963C932E9343
:101E400081E0782A1296D1E00C371D0709F0A6CF61
:101E50007720C9F181E08093BC010E941D07909317
:101E6000BB018093BA018091BA019091BB010E949D
:101E70000E07069760F180917F0290918002909307
:101E8000AD028093AC028091810290918202909386
:101E9000AF028093AE02809183029091840290936E
:101EA000B1028093B0028091850290918602909356
:101EB000B3028093B2021092BC0109C090E080E0AE
:101EC000A8CF80E0BECF8091BC018111CCCF872DFF
:101ED000DF91CF911F910F91FF90EF90DF90CF9006
:101EE000BF90AF909F908F907F900895CF9384E0A4
:101EF00090E00E94A529C82F81E290E00E94A529C8
:101F0000982F8C2FCF9108950F931F93CF93DF932A
:101F1000C42FD0E0CC0FDD1F2EE1629FC00DD11D7C
:101F2000112438E7839FC00DD11D1124CE01869660
:101F30000E94A529082F10E0102F0027CE018796B8
:101F40000E94A5299801282BC901DF91CF911F91EB
:101F50000F910895462F843038F4743028F46F3090
:101F600018F4672F0C94840F90E080E00895CF93CD
:101F7000DF930E94AA0FEC0182389105A9F1D8F5F0
:101F80008133910509F496C048F58932910509F429
:101F90008AC08A9709F495C0C11521E5D20708F0D7
:101FA000BCC0C11530E5D30708F014C1C83ED10547
:101FB00008F09CC0C03ED10560F5C83AD10508F0D4
:101FC00087C0C53AD10508F0FDC0C130D10509F17F
:101FD0002097F9F0C430D105E0F440C08533910575
:101FE00009F45AC0C997C1F680918702837089F0BD
:101FF000C0EED0E00EC0833E910599F170F4803EB2
:10200000910501F1823E910539F68091870282FDAA
:1020100021C0CE01DF91CF910895863E910561F1F7
:10202000873E910571F1843E910509F0B5CF80910D
:10203000880281FFEECF80918702C7EED0E084FD59
:102040000DC0E7CF8091870280FD12C19091880278
:1020500090FFDFCFC3EED0E084FFDBCFD0E0C0E065
:10206000D8CF8091870282FD06C19091880290FDB1
:10207000BFCF84FFCECFF2CF8091870283FDDDCF2B
:10208000C8CF8091870283FDF9C09091880291FFAB
:10209000F0CFC4EED0E0BDCF8091870285FFB9CFED
:1020A000C9E2D0E0B6CF8091870285FFB2CFC5E309
:1020B000D0E0AFCF8091870286FFABCFCAE2D0E0FD
:1020C000A8CF8091870286FFA4CFC1E3D0E0A1CF43
:1020D000CF3BD10518F6C85AD0E0CC0FDD1FC65B48
:1020E000DE4F0990D881C02DD46493CFC11540E252
:1020F000D40758F4C11581E0D80708F08ACFC03F53
:10210000D10508F4ABCFD06584CFC11590E4D907D1
:1021100008F4A4CFDF70D06A7CCFC11525E5D207C3
:1021200000F5C11534E5D30708F08AC0C11543E5B1
:10213000D40708F071C0C11582E5D80708F467C05C
:10214000CE018370992721E030E002C0220F331FB7
:102150008A95E2F7C695C69580E2C89FE0011124F2
:1021600052C0C11599E5D907A8F4C11528E5D207D1
:1021700008F06BC0C11536E5D30708F06FCF8C2F80
:102180000E940C0BC82FD0E0DC2FCC27CC27DF71AE
:10219000D0623FCFC1154AE5D40708F45BC0CE0139
:1021A00090568115904208F059CF8D2F8F710E9463
:1021B0000C0B90E0982F882788279F719C012C2B6F
:1021C000E901E6CFC55AD0E0C95BDE4FC881D0E057
:1021D000D0641FCFCE01E4E096958795EA95E1F7AC
:1021E00083702C2F26952695237040E2249F900122
:1021F0001124382B8C2F8370C1E0D0E002C0CC0FAB
:10220000DD1F8A95E2F7C22BD32BDC6802CFDC2FCF
:10221000CC27C16FD06AFDCECE018370992721E013
:1022200030E002C0220F331F8A95E2F7C695C695AB
:1022300090E2C99FE0011124C22BD32BDA68E9CECA
:10224000DC2FCC27C46FD06AE4CEDC2FCC27C06F44
:10225000D06ADFCE8C2F8F700E940C0B34E0D695A5
:10226000C7953A95E1F7CF709C2FEC01D069D1CE9C
:10227000C9E3D0E0CECEC2EED0E0CBCEC6EED0E009
:10228000C8CEBF92CF92DF92EF92FF920F931F932F
:10229000CF93DF938C01C090EC02D090ED02E090E0
:1022A000EE02F090EF028091750290917602A0917B
:1022B0007702B0917802C82AD92AEA2AFB2ACFE10C
:1022C000D0E0BC2ED701C6010C2E04C0B695A79550
:1022D000979587950A94D2F780FD0EC0219788F7CD
:1022E000B12C8B2DDF91CF911F910F91FF90EF902B
:1022F000DF90CF90BF900895B8018C2F0E94B70F48
:10230000019761F3EECFCF93DF93EC010E9441116F
:10231000BE01DF91CF910C94B70F0E948311292F3A
:102320002F7092959F7092509E3078F4E92FF0E0D4
:10233000EE5AF54D0C942F29803F19F020F4883E79
:1023400020F481E00895843FE1F380E00895883E21
:10235000C0F3813FD1F7F5CF822F8695869586957C
:1023600008956F927F928F929F92AF92BF92CF9279
:10237000DF92EF92FF920F931F93CF93DF938FE43F
:10238000C82E84E0D82E9CEBE92EF12CE701C8572B
:10239000D10936011BC0F50185909490692DC801C3
:1023A0000E94B929682DC80101960E94B92982E0CE
:1023B000A80EB11C0E5F1F4FC017D10761F78EE149
:1023C000680E711C6E96CE15DF0529F08E010E5138
:1023D00011095301E0CF7E0188E7E80EF11C88E780
:1023E000C80ED11C8CE9E81682E0F80679F6DF9178
:1023F000CF911F910F91FF90EF90DF90CF90BF9002
:10240000AF909F908F907F906F900895682F86E097
:1024100090E00C94B9298091A90281FF11C08D7FB1
:102420008093A9020E94061280916F008E7F809394
:102430006F008091A9028695869586950C94270A4F
:1024400008958091A90281FD10C082608093A90245
:102450000E94061210927E0210927D0210927C025F
:1024600080916F00816080936F000895CF93DF9318
:10247000C6E0D2E060E0CE010E94B9292196C115E4
:1024800084E0D807B9F7DF91CF910895CF93C82F93
:102490006FEF811161E282E290E00E94B9296FEF53
:1024A000C11166E083E290E00E94B9296FEFC1118B
:1024B00063E184E290E0CF910C94B9298F929F92CE
:1024C000AF92BF92CF92DF92EF92FF920F931F9342
:1024D000CF93DF93FC01B280948081E08483CBEDC5
:1024E000D1E000EC11E08BE4A82E88248394EE2444
:1024F000EA94F12C2BE4C22ED12C91101DC01B822A
:102500001A8298014A81698188810E94760A2596FB
:102510000D5F1F4F82E0C830D80779F7DF91CF9168
:102520001F910F91FF90EF90DF90CF90BF90AF90F1
:102530009F908F900C94A30C2B81222309F12150A2
:102540002B833C818A2D821B311101C0822F9091F7
:10255000BC02899FC0011124B6010E9407296A8329
:10256000211104C0332311F01C82AB8222E02B1511
:1025700040F28091BA0288838091BB028983C1CFE7
:102580000E948829823091400CF0BBCF82E08B15ED
:10259000C0F40E948829B7010E941B29888322E089
:1025A0002B1590F40E9488292091BB022695622F5A
:1025B00070E00E941B29280F29831A82AB828C822B
:1025C000A0CF8091BA02EACF2091BB02F5CF90E074
:1025D00080E00E94B32921E08C3E9E4F09F020E06C
:1025E000822F08956CEE7EEF90E080E00E94D72964
:1025F00060E082E090E00E94B92960E083E090E032
:102600000E94B929109275021092760210927702F8
:102610001092780260E084E090E00E94B92960E0C6
:1026200081E290E00E94B92960E085E090E00E949C
:10263000B92960E086E090E00E94B9296FEF87E059
:1026400090E00E94B92940E050E0BA0188E090E0B3
:102650000E94CB2960E08DE090E00E94B92940E023
:1026600050E0BA0188E190E00E94CB2960E087E168
:1026700090E00E94B92940E050E0BA018CE190E07E
:102680000E94CB2960E080E290E00E94B92940E0FE
:1026900050E0BA018FE090E00E94CB2940E050E08A
:1026A000BA0183E190E00C94CB290E94E7128111DA
:1026B00002C00E94F21286E090E00E94A529809359
:1026C000A902883620F0877080668093A9029091D5
:1026D000A902892F817090FF04C0892F8695869565
:1026E00086950C94270ACF92DF92EF92FF926B01AE
:1026F0007C010E94670AB701A60188E090E0FF9084
:10270000EF90DF90CF900C94CB298091BD02833065
:1027100018F48F5F8093BD026091B9027091BA0284
:102720008091BB029091BC020C9473138091BD0206
:10273000882319F081508093BD026091B902709195
:10274000BA028091BB029091BC020C9473135F9209
:102750006F927F928F929F92AF92BF92CF92DF92B1
:10276000EF92FF920F931F93CF93DF9300D00F92BE
:10277000CDB7DEB7182F762E042F622E9091B902B6
:1027800090FF29C0E92FE695AE2FB0E0A45EBE4FC2
:102790008C918093AA029E7F923081F59E012F5FDB
:1027A0003F4F812F0E94760A4B8169818A810E9466
:1027B0002B0E1093BA027092BB020093BC026620EB
:1027C00051F06091B9027091BA028091BB02909170
:1027D000BC020E9473130F900F900F90DF91CF9166
:1027E0001F910F91FF90EF90DF90CF90BF90AF902F
:1027F0009F908F907F906F905F900895823019F432
:102800000091BC02D6CF863019F41091BA02D1CF14
:102810008930D9F3893169F6E9518E2F8170582EAC
:10282000E695F0E0E653FD4FA590B490BB2480EC14
:10283000E82E81E0F82ED12CC12C99E0892E912C24
:10284000C601B4010E940729812F511013C0860FC1
:102850009701402F672D0E94760ACA0CDB1C83E08B
:10286000E80EF11C8BEDE81681E0F80649F70E94AE
:10287000A30C9FCF861BECCFE9EBF2E043812CE069
:10288000421B08F440E021E0628181810C94A7138F
:10289000E9EBF2E043812CE0420F08F44FEF21E036
:1028A000628181810C94A713E9EBF2E062812CE054
:1028B000621B08F460E021E0438181810C94A7133E
:1028C000E9EBF2E062812CE0620F08F46FEF21E0A7
:1028D000438181810C94A713E9EBF2E0818121E02F
:1028E000438162818C500C94A713E9EBF2E0818163
:1028F00021E043816281845F0C94A713E9EBF2E04D
:1029000083E0808311828FEF8283838314826081CE
:102910007181828193810C94731310927302809160
:102920001B01ECE9F1E0882359F08091870287FFD1
:1029300007C08EE1DF011D928A95E9F70C948808A3
:1029400086E0F8CF1F93CF93DF93CDB7DEB7AA977A
:102950000FB6F894DEBF0FBECDBF83EE92E020919C
:10296000F100DC012D93CD01B2E08B3E9B07B9F75E
:102970008091E402833009F471C0B8F4813009F425
:1029800048C0823009F4B2C08091E80083FF3AC1A8
:102990008091E3029091E4029A3008F033C1E92F6C
:1029A000F0E0E05AF54D0C942F298A3009F48DC0DF
:1029B0008B3009F470C0893039F78091E30281329D
:1029C00019F78091E7029091E802009711F00297C1
:1029D000D9F68091E800877F8093E8008091E80035
:1029E00082FF37C09091F3008091F200029729F4A2
:1029F0008091F1008B7F813021F48091F1008093F0
:102A0000BF028091E8008B778093E8000E94C904A0
:102A1000BBCF8091E302813A09F0B6CF8091E80004
:102A2000877F8093E8008091E7029091E802892BEC
:102A300061F460E280EC92E070E00E947B0580919E
:102A4000E8008B778093E8009FCF60E090E080E023
:102A5000F3CF8091EB028111C1CF96CF8091E30239
:102A6000813A09F091CF8091E7029091E802892B99
:102A700009F08ACF8091E800877F8093E8008091F9
:102A8000E80080FFFCCF80911B018093F1008091D2
:102A9000E8008E77B9CF8091E302813209F074CFDC
:102AA0008091E7029091E802892B09F06DCF809127
:102AB000E800877F8093E8000E94C9048091E502C6
:102AC00080931B010E948D145FCF8091E3028132BD
:102AD00009F05ACF8091E800877F8093E8000E9438
:102AE000C9048091E6028093BE024ECF8091E3023A
:102AF000813A09F049CF8091E800877F8093E80010
:102B00008091E80080FFFCCF8091BE02BECF80386C
:102B100099F0823809F076C08091E7028F70873093
:102B200008F070C08093E9008091EB0085FB882756
:102B300080F91092E90006C08091E0029091E102D4
:102B4000911182609091E800977F9093E8008093C4
:102B5000F1001092F1008091E8008E77C0C18823C7
:102B600009F4ADC1823009F04DC08091E5028111B8
:102B7000B1C18091E7028F702FEF280F263008F047
:102B800041C08093E9002091EB0020FFA3C1933066
:102B900031F48091EB0080628093EB009BC19091B7
:102BA000EB0090619093EB0021E030E001C0220F38
:102BB0008A95EAF72093EA001092EA008091EB00F0
:102BC0008860EACF81111EC01091E5021F778091C5
:102BD000E3008078812B8093E3008091E800877F79
:102BE0008093E8000E94C9048091E80080FFFCCF38
:102BF0008091E30080688093E30082E0111183E01C
:102C00008093EB028091E80083FF0AC08091E80086
:102C1000877F8093E8008091EB0080628093EB00D7
:102C2000AA960FB6F894DEBF0FBECDBFDF91CF914D
:102C30001F9108958058823028F72091E502309145
:102C4000E6022C3DE3E03E07A1F583E08A838AE2B9
:102C500089834FB7F894DE01139620E03EE051E2FD
:102C6000E32FF0E050935700E49120FF03C0E2957A
:102C7000EF703F5FEF708E2F90E0EA30C0F0C796A4
:102C80008D939D932F5F243159F74FBF8091E800BA
:102C9000877F8093E8006AE270E0CE0101960E948F
:102CA0007B058091E8008B778093E800ABCFC096DE
:102CB000E7CF8091E7029091E802432F55274330F8
:102CC000510509F44AC078F54130510509F485C031
:102CD0008BE590E0E4E2F7E04230510509F092CF55
:102CE0002091E800277F2093E8002091E9023091AD
:102CF000EA028217930708F49C0140E02115310590
:102D000009F070C041116EC08091E80082FDC9CF0A
:102D10008091EB02882329F2853019F28091E80036
:102D200083FFF2CFBECF4132510509F447C0423292
:102D3000510509F067CF8330910508F063CFFC019E
:102D4000EE0FFF1FE257FE4F0190F081E02D8557F7
:102D50009E4FDC018C9190E01DC03327213031055E
:102D6000E9F02115310579F022303105F9F02330F1
:102D7000310509F047CFE1E9F7E0E4918E2F90E0CB
:102D8000E1E9F7E007C0E7EBF7E0E4918E2F90E090
:102D9000E7EBF7E0009709F435CFA2CFEDEAF7E0D3
:102DA000E4918E2F90E0EDEAF7E0F4CFE7E9F7E069
:102DB000E4918E2F90E0E7E9F7E0ECCF83309105C6
:102DC00008F020CF880F991FFC01EC56FE4F0190B0
:102DD000F081E02D89E090E083CF82E190E0EFE7A1
:102DE000F7E07ECF8091EB02882309F45ACF85303B
:102DF00009F457CF8091E80083FD53CF8091E8001C
:102E000082FD82CF8091E80080FF78CF9091F3001F
:102E10008091F2002115310519F08830910550F0AC
:102E200041E0089709F040E08091E8008E778093B8
:102E3000E80064CF44914093F1003196215031096C
:102E40000196E8CF803809F0DDCE8091E800877FD9
:102E50008093E8008091E2028093F1007CCE8111A2
:102E6000D1CE1091E502123008F0CCCE8091E8006E
:102E7000877F8093E8001093E2020E94C904112327
:102E800011F084E005C08091E30087FDFACF81E076
:102E90008093EB0242E061EC81E00E94E80442E2B0
:102EA00061EC84E00E94E80442E261EC82E00E946E
:102EB000E80442E260EC83E00E94E804A3CE809143
:102EC000E502813009F09ECE81E0933009F080E088
:102ED0008093E1021092E9008091E800877F80935F
:102EE000E8000E94C9048ECE6091B902669570E038
:102EF0004BE050E084E091E00E949829892B19F47E
:102F000081E08093AB020E941D0790938D02809315
:102F10008C0208959091B90290FF36C09170811192
:102F200029C092609093B902662351F06091B90272
:102F30007091BA028091BB029091BC020E947313FF
:102F40006091B902669570E04BE050E084E091E05A
:102F50000E949829892BA9F01092AB0281E08093FE
:102F60008F0220E04091BC026091BB028091BA02C6
:102F70000C94A7138B3210F09465D4CF880F982B44
:102F8000D1CF0E947417EACF08958091B902869537
:102F9000815009F48AE261E00C948A178091B902A9
:102FA00086958F5F8B3208F081E061E00C948A1780
:102FB0009091B90290FF07C09695981720F0961748
:102FC00010F40C94CE1761E00C948A174F925F9224
:102FD0006F927F928F929F92AF92BF92CF92DF9229
:102FE000EF92FF920F931F93CF93DF9300D000D007
:102FF0000F92CDB7DEB77C01FC0183819481892BD0
:1030000031F08081918189238F3F09F00EC60F90A6
:103010000F900F900F900F90DF91CF911F910F9114
:10302000FF90EF90DF90CF90BF90AF909F908F90E8
:103030007F906F905F904F9008950E944111182FDC
:10304000682F89819A810E94110869817A81812F74
:103050000E94AA0F8C01F7019281992309F4B7C548
:10306000980122513F452031310508F09BC58FEF73
:1030700093E00E94A529025156E0852E52E0952E3C
:10308000882379F180917002877009F4C0CFF7012D
:103090008281882309F4BBCF82E00F900F900F90BC
:1030A0000F900F90DF91CF911F910F91FF90EF90B4
:1030B000DF90CF90BF90AF909F908F907F906F9058
:1030C0005F904F900C94EC088114F4E09F06D1F2CD
:1030D000C4010E94A529811101C001502FEF821A5D
:1030E000920A0111F1CF1C821B82662463944AE08C
:1030F000542E84010F5F1F4FC4010E94A5298983AC
:103100001A82882309F4BECF9FEF980F933008F5F9
:103110008A83698232E0830E911CC8010E94A5292E
:103120008B83882309F4AECF8E010F5F1F4FF80108
:1031300020812223F1F2213009F043C09181828164
:10314000913049F40E5F1F4F0E942C0C0F5F1F4FF0
:10315000EECF4801E9CF923029F40E5F1F4F0E9455
:103160006809F4CF933029F40E5F1F4F0E942F0996
:10317000EDCF943019F00F5F1F4FE8CF0E5F1F4F58
:1031800030E020E0B8016F5F7F4FF801418180534C
:10319000990B8A30910550F021503109B8F28FE92E
:1031A0009FE00197F1F700C00000F6CF529EF001BA
:1031B000539EF00D11249C012E0F3F1F842F8B0175
:1031C000E1CFE22FF0E0E15BF94F7490822F86951A
:1031D0008695869590E0FC01E15CF94FA4902770FC
:1031E000B12C022E02C0B594A7940A94E2F7E1E054
:1031F000AE22BB24FC01E15DF94FC490D12C02C08A
:10320000D594C7942A95E2F7F1E0CF22DD24A114EA
:10321000B10419F081EE0E946809C114D10419F0BB
:1032200086EE0E946809872D0E942C0CCD2819F08B
:1032300086EE0E942F09AB2809F488CF81EE96CF45
:1032400081E00E9404090E94AD081CCF81E00E9429
:10325000C908F9CF82E0F5CF82E0F9CF8CE00E9477
:103260004C0A8091A9020E9406120CCF80E0F7CF91
:103270008091A902982F987F79F088508093A902B5
:10328000887F91E009F490E08091A90290FB80F999
:103290008093A9020E9406128091A90286958695C4
:1032A00086950E94270AEECE8091A902982F9695C6
:1032B000969596959C3040F49F5F990F990F990FC2
:1032C0008770892B8093A9028091A9028160E0CF49
:1032D0008091A90280FF07C08E7F8093A9020E947F
:1032E000061280E0DECF80FDCDCE81608093A90202
:1032F000813019F489E08093A9028091A902CACF94
:103300009091A902892F8695869586958F5F8F71FA
:1033100097708D3048F4880F880F880F892B809321
:10332000A9028091A902ACCF9093A902FACF809113
:10333000A90281FF03C00E940B12A4CE0E94211299
:10334000A1CE27E245EE65EEA4C426E241EE60EE92
:10335000A0C427E245EE64EE9CC426E241EE62EE94
:1033600098C428E241E0EFCF809187028061063067
:10337000ECE51E0709F489C0809187028860073058
:103380001C4508F482C08091870280627EC08091D3
:1033900087028D7F0C302CE5120709F476C058F4B3
:1033A0000A308CE5180709F485C008F47DC08091C7
:1033B00087028E7F6AC080918702877F0E30ECE59E
:1033C0001E0709F462C0809187028B7F0F301C4575
:1033D00008F45BC0809187028F7E57C00B3F2CE5BD
:1033E000120709F459C030F503318CE5180709F4C8
:1033F0006DC078F40131ECE51E0709F463C00231B9
:103400001C4509F08FC40E948D14809187028F772C
:103410003CC005312CE5120709F460C008F474C003
:103420000A3F1C4509F07EC4809188028160809328
:10343000880278C40F3F9CE5190709F44BC088F453
:10344000809188028D7F0D3FFCE51F0781F38091FD
:1034500088028E7F0E3F1C4550F380918802836066
:10346000E6CF01303DE5130709F457C008F442C028
:1034700060E002301D4509F055C48EE090E00E94E6
:10348000B92950C4809187028160809387024AC421
:10349000809187028460F9CF809188028260C7CFD3
:1034A000809187028064F1CF0E948D148091870201
:1034B0008068EBCF809187028C60E7CF8091870294
:1034C0008F7DE3CF809187028F7BDFCF8091870252
:1034D000837FDBCF809188028C7FA9CF8091870288
:1034E00082FB992790F921E0922790FB82F990FBCB
:1034F00083F9CBCF80918802982F909591708E7F21
:10350000892B90FB81F993CF0E948D1490918702B3
:10351000892F97FB87F98058B8CF61E0AECF8091B3
:1035200073020631ECE51E0709F090C38A7A91E038
:1035300009F490E090930F0269E2811165E38AE952
:1035400091E00E9469070E94A4079CCD8091B90276
:1035500080FF1BC08E7F8093B9026091B902709189
:10356000BA028091BB029091BC020E947313109228
:10357000AB02FFEF20E732E0F15020403040E1F7AE
:1035800000C000000E94A30C7DCD81608093B90231
:1035900061E086950E948A1775CD45EC57E16EEC87
:1035A00077E10E94620A6ECD4EEC57E165EC77E15F
:1035B000F8CF4CE654E165E774E1F3CF45E754E119
:1035C0006CE674E1EECF44E554E160E674E1E9CFE6
:1035D00040E654E164E574E1E4CF4CE354E168E48F
:1035E00074E1DFCF48E454E16CE374E1DACF46E9FB
:1035F00053E165E873E1D5CF45E853E166E973E14E
:10360000D0CF61E081E0C6CF65E082E00E94D817AC
:1036100039CD68E086E0FACF6EE089E0F7CF64E16B
:103620008FE0F4CF67E185E1F1CF61E088E1B2CFCF
:1036300062E289E1EBCF61E083E2ACCF01158CE57A
:10364000180709F447C00E3D1C4509F450C0F701A6
:1036500000811181992309F44DC0C8010E944111D4
:10366000D82E682FC8010E941108B8018D2D0E9424
:10367000B70F8C01882EF701A580A2943FE0A3220A
:10368000D280D1101092720280917002877099F0EE
:10369000DD2089F0812F807F803421F080E2800F4F
:1036A000883048F082E00E94EC08809170028770B8
:1036B000CC24C3948111C12CB12EB2942FE0B2223C
:1036C000FBE0FB1508F450C0EB2DF0E0E659F54D9A
:1036D0000C942F290E948D14FFEF24E33CE0F1505D
:1036E00020403040E1F700C000000E94080C0E941A
:1036F000F212C8CCC8010E94E907D82EB6CF212FFC
:103700002F70A22E107F19F0A29490EFA922DD2035
:10371000C9F0AA2069F080E2800F883010F0811093
:103720000BC080917302A82AA09273020E94A40782
:10373000802F0E94680918C080917202A82AA09266
:103740007202F4CF802F0E942F09AA2069F0A09462
:10375000005E083010F081103BC080917302A822F7
:10376000A09273020E94A407EB2DE850FF0B349740
:1037700010F40E94DE09CC2009F449CC809170023B
:1037800080FD45CCF70112828595859585950E942F
:103790000409C7010E94E6178091700285958595FE
:1037A00085950F900F900F900F900F90DF91CF9114
:1037B0001F910F91FF90EF90DF90CF90BF90AF904F
:1037C0009F908F907F906F905F904F900C94C9085E
:1037D00080917202A822A0927202C4CF312F3F7052
:1037E000932E107F103219F0929480EF9822882047
:1037F00071F081E0881661F1DD20B9F1AA2071F144
:10380000F701858180FF94CF8F70858327C0DD20ED
:1038100091F090917402892D892BA11003C00E9410
:103820005208A2CFE1E0AE12FACF981709F49CCF6C
:103830008093740299CFA11006C00E949E07892D23
:103840000E94470891CFF1E0AF1609F48DCFF5CF74
:10385000DD2031F025E02A1508F486CF892DDFCF51
:1038600034E03A1508F480CFEACFAA2041F3F9E317
:103870008F1291C12FEF37EE83E02150304080400E
:10388000E1F700C0000087C1812F8695869583707F
:1038900061F0813009F068CFC8019370D11002C087
:1038A00090E080E00E945C085FCFC8019370D11067
:1038B00002C090E080E00E94720856CF802FDD2089
:1038C00029F00E94A6060E9429074ECF0E94E50516
:1038D000FACF812F837009F066C0D11045CF802FB9
:1038E000829586958770880F880F602F6F70462E9F
:1038F000512C712C612C082E04C0440C551C661CE4
:10390000771C0A94D2F740E050E0BA0104FF0FC0E0
:103910004FE050E060E070E004C0440F551F661FA8
:10392000771F8A95D2F74095509560957095812FB5
:10393000869586958370823019F1D8F400917502CE
:10394000109176022091770230917802813069F0EF
:103950004429552966297729CB01BA0160237123AF
:10396000822393230E942509FFCE402A512A622AEE
:10397000732ACB01BA016429752986299729F2CFC8
:1039800044295529662977290091750210917602FC
:103990002091770230917802CB01BA01602771271C
:1039A00082279327DFCF8695DD2011F0812F81704C
:1039B000882309F4D9CE802F829586958770880F49
:1039C000880F602F6F70462E512C712C612C082EA1
:1039D00004C0440C551C661C771C0A94D2F740E0C6
:1039E00050E0BA0104FF0FC04FE050E060E070E02B
:1039F00004C0440F551F661F771F8A95D2F7409564
:103A0000509560957095812F86958695837082304C
:103A100019F1D8F40091EC021091ED022091EE0220
:103A20003091EF02813069F04429552966297729C0
:103A3000CB01BA0160237123822393230E94A30840
:103A400093CE402A512A622A732ACB01BA016429F3
:103A5000752986299729F2CF44295529662977297E
:103A60000091EC021091ED022091EE023091EF02F4
:103A7000CB01BA016027712782279327DFCF1F7000
:103A8000DD2029F0812F0E940409802FC8CE802FCD
:103A90000E944708812F0E94C90866CE802F92EFAE
:103AA000891609F450C0981578F0E0EF8E1619F1D8
:103AB000F1EF8F1609F43FC0DD2009F467C0A110B3
:103AC00037CE812F8F713CC023EF821609F440C09E
:103AD00034EF8312F1CFDD2009F44DC01F71812F27
:103AE0000E940409E8E01E9FC001112483608093B6
:103AF0007002812F25C0DD20C9F084E08A1508F40A
:103B000033CE1F7161E070E080E090E004C0660F8A
:103B1000771F881F991F1A95D2F70091EC02109118
:103B2000ED022091EE023091EF02A4CF95E09A15BC
:103B300008F41ACEE6CF812F8F71DD2009F4ABCFC8
:103B40000E94040911CE812F8F71DD20C9F3A3CF0C
:103B500060E070E0CB01DD2009F470CF1F7161E0FF
:103B600070E080E090E004C0660F771F881F991F07
:103B70001A95D2F763CF81E00E94EC08F1E0FA15C4
:103B800008F0F2CD82E00E94EC08EECDAA2039F0D8
:103B9000893309F46FCE802F0E942F09E5CD812F44
:103BA0008F7179CF0031FFE51F0709F449CB01314F
:103BB0002FE5120709F44ECBF801EB5BFC45E7302B
:103BC000F10508F04FC0EA58F54D0C942F2900314B
:103BD0003FE5130709F43ACB01318FE5180709F4E3
:103BE0003BCB033FECE51E0709F4AFCB08F0AAC0BE
:103BF000083D2CE5120709F4A4CB093D3CE5130769
:103C000009F4AFCB073D8CE5180709F43FC0063136
:103C10001C4509F01CCD80910F0269E2811165E31A
:103C20008AE991E00E943F078ECC85E0DE01119683
:103C300001900D928A95E1F7F701228189819A819D
:103C40002111FBC90E94E907182FFFC98272F801F0
:103C5000E25CFC45E431F10508F0F0CCE358F54DA9
:103C60000C942F29033F2CE5120709F46ECBA8F41E
:103C7000083D8CE5180709F464CB093DECE51E0707
:103C800009F46FCB073DFCE51F0799F426E241EEEE
:103C900061EEC7010E943F0CF5C9053F2CE51207F4
:103CA00009F45BCB08F455CB063F8CE5180709F403
:103CB00055C010920E0202302CE5120708F42FCCEA
:103CC00006313CE5130738F098012A5F3C4529305E
:103CD000310508F024CC0E94760F909388028093DF
:103CE000870200318CE5180709F4E8CB08F076CBA1
:103CF0000830ECE51E0709F4D3CB08F048CB0430BC
:103D00002CE5120709F4C4CB08F02ECB02308CE569
:103D1000180709F4B7CB80918702826003301C45F5
:103D200009F4B3CB609187021091880284E090E09F
:103D30000E94B929612F81E290E00E94B9290E9476
:103D40008D14A0C9053FECE51E0709F406CB08F465
:103D500000CB063F2CE5120709F059CF27E245EECC
:103D600066EE97CF1F93CF93DF9380911502807FEC
:103D7000A9F480911202882389F080914702D091A2
:103D800016026091100270911102A0911302B0917D
:103D90001402C62FC72316E0D81304C0DF91CF91B9
:103DA0001F91089590E0109711F0CF3F19F40196FC
:103DB0008770F2CF189F9001199F300D1124F901DF
:103DC000E95EFD4F41814713F2CF40814613EFCFAB
:103DD00042814111ECCF438154814A1B5B0B483C2B
:103DE000510528F7809115028F708061809315022C
:103DF000F901E45EFD4F80818F708061808380E1F6
:103E000092E00E94E617DF91CF911F910C943D083C
:103E1000AF92BF92CF92DF92EF92FF920F931F93D8
:103E2000CF93DF93CDB7DEB761970FB6F894DEBFBF
:103E30000FBECDBF8C0185E0F801DE011D9601901B
:103E40000D928A95E1F7F80180819181E28020E16D
:103E5000A22E22E0B22E609113027091140261151D
:103E6000710509F43EC13091100240911102232FD7
:103E700024232F3F09F435C1C380D480F09012026F
:103E8000F601E61BF70BFF2009F4FBC02091150299
:103E9000522F507FE83CF10508F0BBC0511178C0AB
:103EA000FE2C491321C038131FC0E1101DC02F7014
:103EB000206120931502C5010E94E617809115022A
:103EC000F80185838F2D61960FB6F894DEBF0FBE83
:103ED000CDBFDF91CF911F910F91FF90EF90DF90B9
:103EE000CF90BF90AF900895CD2829F0282F292397
:103EF0002F3F09F014C120E0F22FF170DF2E20FFD8
:103F00003DC0209147024091160256E0241315C08F
:103F10008D879E878D859E850E948311292F2295EE
:103F20002F702230F8F0243020F59F70F9F0F8015E
:103F30009581907FD9F4D12C1FC030E0529FF001C1
:103F4000539FF00D1124E95EFD4F6181961306C069
:103F50006081861303C06281E61210C02F5F3F4F5D
:103F60002770D4CF9F7011F0882329F3805E8830AA
:103F700010F3C8010E94E617FD2CA4CFEE2009F42F
:103F8000A1CF80911502816080931502F12C9ACF08
:103F9000491312C0381310C0E1100EC0F801258378
:103FA000C8010E94E61786E0F801A0E1B2E00190A6
:103FB0000D928A95E1F786CF8D879E878D859E85A8
:103FC0000E948D11882309F1EE20F9F080911502ED
:103FD000803270F0209110023091110238872F83C7
:103FE0001986DB86CA868C87CE0107960E94E61763
:103FF00086E0F801A0E1B2E001900D928A95E1F728
:104000000E94B21EFF24F3945DCFC8010E94E61700
:10401000F9CF51110AC080E192E00E94E61786E0D4
:10402000F50111928A95E9F7B1CF49130FC0381302
:104030000DC0E1100BC0F8012583C8010E94E617EE
:1040400086E0F50111928A95E9F73CCF8D879E872E
:104050008D859E850E948D118823B9F2EE20A9F2EC
:1040600080911502803220F22091100230911102CD
:104070003A8329831B82DD82CC828E83CE01019616
:10408000B5CFE83CF105E0F6FE2CEE2009F4BDCFFB
:10409000491316C0381314C08091150280FD83CFD8
:1040A000982F907F09F47FCFF8018583903F09F422
:1040B00077CF982F907F905F8F70892B858370CFFB
:1040C0008D879E878D859E850E948D11811190CF51
:1040D00080911502816080931502C8010E94E61745
:1040E000F1CEEE2009F491CF8D879E878D859E8538
:1040F0000E948D11F82E882309F487CF86E0F801FD
:10410000A0E1B2E001900D928A95E1F78091100252
:10411000909111020E9483110E94B21ED3CE21E021
:104120002E25EACE1F93CF93DF93CDB7DEB76797E7
:104130000FB6F894DEBF0FBECDBF4B8B5C8B6D8B83
:104140007E8B8F8B1A8A198A85E0FE017396DE01B9
:104150001D9601900D928A95E1F786E0FE013D964D
:10416000DE01179601900D928A95E1F7CE01079630
:104170000E94081F882389F016E0809147029091E1
:104180001602891349C067960FB6F894DEBF0FBEBA
:10419000CDBFDF91CF911F91089586E0FE01379644
:1041A000DE01119601900D928A95E1F78A859B8533
:1041B000892B11F38F81988589238F3FE9F2209114
:1041C000160230E0C9010196877099274091470295
:1041D0004817190671F40E948D141092160210925D
:1041E000470286E0E0E1F2E0DF011D928A95E9F7FF
:1041F000C3CF96E0929FD001939FB00D1124A95E8A
:10420000BD4FFE01319601900D929A95E1F7809392
:1042100016020E943D08B0CF819FC0011124895E23
:104220009D4F0E94081F882309F4ADCF809147025B
:1042300090E0019687709927809347029ECF1F9246
:104240000F920FB60F9211242F933F934F935F93CA
:104250006F937F938F939F93AF93BF93CF93DF938E
:10426000EF93FF93D091E900DF708091EC00C82FAD
:10427000C17080FDC0E81092E9008091F000877F56
:104280008093F00078940E94A2141092E90080912B
:10429000F00088608093F000CD2BCF70C093E900D0
:1042A000FF91EF91DF91CF91BF91AF919F918F914E
:1042B0007F916F915F914F913F912F910F900FBE22
:1042C0000F901F9018951F920F920FB60F92112406
:1042D0002F933F934F935F936F937F938F939F930E
:1042E000AF93BF93EF93FF938091E10082FF09C0EA
:1042F0008091E20082FF05C08091E1008B7F809376
:10430000E1008091DA0080FF24C08091D80080FF16
:1043100020C08091DA008E7F8093DA008091D900EE
:1043200080FFAFC080E189BD82E189BD09B400FE94
:10433000FDCF81E08093EB028091B802811109C02A
:104340000E9427040E941A058091E20084608093F5
:10435000E2008091E10080FF1CC08091E20080FFBC
:1043600018C08091E2008E7F8093E2008091E2008D
:1043700080618093E2008091D80080628093D800B1
:1043800019BC85E08093EB0280916F00826080937E
:104390006F008091E10084FF38C08091E20084FFCB
:1043A00034C080E189BD82E189BD89B5982F9170C3
:1043B00080FFFBCF8091D8008F7D8093D8008091C3
:1043C000E1008F7E8093E1008091E2008F7E8093F8
:1043D000E2008091E20081608093E2008091E2023D
:1043E000882309F454C084E08093EB020E948D146A
:1043F0000E9455130E94DE090E94741780916F007D
:104400008D7F80936F000E94DE098091E10083FF21
:1044100027C08091E20083FF23C08091E100877F65
:104420008093E10082E08093EB021092E20280919F
:10443000E1008E7F8093E1008091E2008E7F809387
:10444000E2008091E20080618093E20042E060E05F
:1044500080E00E94E8048091F00088608093F00082
:10446000FF91EF91BF91AF919F918F917F916F914C
:104470005F914F913F912F910F900FBE0F901F9022
:10448000189519BC1092EB021092B80262CF80917D
:10449000E30087FD93E09093EB02A8CFCDB7DEB7A2
:1044A000AA970FB6F894DEBF0FBECDBF84B7877F43
:1044B00084BF0FB6F894A8958091600088618093BE
:1044C0006000109260000FBE80E890E00FB6F89494
:1044D00080936100909361000FBE85B7806885BFAF
:1044E00085B7806885BF0E9427040E941A058091C5
:1044F000E20084608093E20078948091EB0288234C
:10450000A1F01091E9001F709091EC00892F81704B
:1045100090FD80E8182B1092E9008091E80083FD5F
:104520000E94A2141F701093E90082E084BD93E002
:1045300095BD9AEF97BD80936E00A8E7B1E04CE778
:1045400051E061E070E08D91E82FE295EF70F0E0CE
:1045500011A18F709B0101C0220F8A95EAF7922F5B
:104560009095912391A382A1822B82A34A175B0786
:1045700051F7ACE7B1E04BE851E061E070E08D91BC
:10458000E82FE295EF70F0E011A18F709B0101C060
:10459000220F8A95EAF7922F9095912391A382A1F9
:1045A000822B82A34A175B0751F710928002109268
:1045B0007F021092AD021092AC0210928202109211
:1045C00081021092AF021092AE02109284021092F9
:1045D00083021092B1021092B002109286021092E1
:1045E00085021092B3021092B2020E94B90E8FE3BC
:1045F0009CE90197F1F700C000000E94B90E80917C
:10460000AC0280FF0BC080E00E9446126FEF7FEF8C
:1046100090E080E00E94D7290E94080C0E94E712D7
:10462000811102C00E94F212279A2F988AE080938B
:10463000800089E1809381008FEF9FEF9093870046
:10464000809386000E9455138091A90281FF0BC0C0
:1046500010927E0210927D0210927C0280916F0077
:10466000816080936F0082E290E00E94A5298132F0
:1046700009F0DCC483E290E00E94A529863009F0AD
:10468000D5C484E290E00E94A529833109F0CEC40C
:104690000E94E712811102C00E94F21282E090E0B3
:1046A0000E94A5298093A0020E94760F9093880211
:1046B0008093870283E090E00E94A529682F70E034
:1046C00090E080E00E9425090E94551380918902A4
:1046D000811133C00E94E712811104C00E94F212BE
:1046E0000E947E1488E090E00E94AD296093B90298
:1046F0007093BA028093BB029093BC026E7F71F4F8
:104700000E947E1488E090E00E94AD296093B90277
:104710007093BA028093BB029093BC020E94670A16
:104720001092AB028091B90280FF04C060E08695D0
:104730000E948A1781E08093890281E191E0909341
:104740008B0280938A02809181008860809381002F
:10475000809181008160809381008FB7F89420ED73
:1047600033E030938900209388008FBF5CE0652E92
:10477000712CEE24EA94F12C72E1C72E77E0D72E4B
:104780008091EB02853009F49EC10E94B90EACEA1B
:10479000B2E0E1EAF2E010E000E0702F8D919D912F
:1047A000219131912817390709F4A6C12827392703
:1047B00060E0AA24A394B12CA9014A215B21452BD6
:1047C00009F494C169A37AA39C012A213B2191E0B9
:1047D000232B09F490E09BA30E941D078160782F92
:1047E0009DA38CA349A15AA16BA18DA10E949220E7
:1047F000000F111FF801EF55FD4F80819181A82610
:10480000B926B182A0828091AB02882309F441C00D
:104810008091AA02E091B902E695E81BE0938E022E
:10482000823009F080C1F0E0E05EF84FE4910E2F95
:1048300010E085E9A82E8EE0B82E80918F028823A3
:1048400089F010928F020E941D07980120953095E3
:10485000820F931F90938D0280938C02109291028D
:104860001092900280918C0290918D020E940E070E
:104870008017910770F0E0918C02F0918D020E0F7D
:104880001F1F10938D0200938C028CE892E0F501BB
:10489000099586E0E9E9F2E0DE01119601900D92BA
:1048A0008A95E1F780919B0290919C02892B09F4F3
:1048B00068C080919702909198020E940E079C0117
:1048C00090919602992309F4CCC32333310508F45F
:1048D00058C09F3F19F09F5F9093960210929D02DF
:1048E00010929E0280919B02181624F40E94860664
:1048F00080939B0280919B0287FF05C00E948606E1
:10490000819580939B0280919C02181624F40E944A
:10491000860680939C0280919C0287FF05C00E94BE
:104920008606819580939C0230919B023323B1F0DF
:1049300020919C02222391F045EB3403C001112405
:10494000992309F45BC190939B0245EB24039001EA
:104950001124332309F456C130939C020E94290785
:10496000809194029091950290939802809397027F
:1049700086E0FE013196A9E9B2E001900D928A9598
:10498000E1F780919D0290919E02892B09F468C005
:1049900080919202909193020E940E079C01909147
:1049A0009602992309F458C32536310508F458C0F6
:1049B0009F3F19F09F5F9093960210929B02109276
:1049C0009C0280919D02181624F40E946406809334
:1049D0009D0280919D0287FF05C00E94640681951B
:1049E00080939D0280919E02181624F40E94640612
:1049F00080939E0280919E0287FF05C00E946406FC
:104A0000819580939E0230919D023323B1F02091D5
:104A10009E02222391F045EB3403C0011124992317
:104A200009F4F4C090939D0245EB240390011124F6
:104A3000332309F4EFC030939E020E94290780912E
:104A4000940290919502909393028093920286E053
:104A5000FE013196A9E9B2E001900D928A95E1F745
:104A60000E94DE0990919F02891721F00E94DE09C1
:104A700080939F028091EB02843009F081CE83E025
:104A80008093E9008091E80082FF7ACE8091E8006F
:104A900090E085FF06C00E944604882309F4BEC04A
:104AA00091E08091E8008B778093E800992309F4E6
:104AB00067CEE981E150E33108F022C1F0E0EF5622
:104AC000F54D0C942F298091E102882309F458CEEA
:104AD0000E94B90EECEAF2E081919191892B09F0E4
:104AE0008FC292E0E43BF907B9F74ACE6F5FAA0C98
:104AF000BB1C6F3009F060CE0F5F1F4F04301105F3
:104B000009F04BCE8FEF8EA38FA318A60E941D072E
:104B10008160782F9AA789A74EA15FA168A58AA571
:104B20000E94922070CE863059F4F0E0E35EF84F98
:104B3000E4910E2F10E0B9EAAB2EBEE0BB2E7DCE85
:104B4000893061F4E695F0E0E65EF84FE4910E2FCF
:104B500010E0A8EDAA2EACE0BA2E6FCE8F3061F433
:104B6000E695F0E0E95EF84FE4910E2F10E0F2E0F8
:104B7000AF2EFDE0BF2E61CE853159F4F0E0EC5E42
:104B8000F84FE4910E2F10E0E0E7AE2EEDE0BE2EE0
:104B900054CE08EE13E05EEBA52E5DE0B52E883115
:104BA00009F44BCE833241F4F601059114917CE374
:104BB000A72E7EE0B72E41CE04EF11E042EFA42EE7
:104BC0004DE0B42E843209F438CE00ED17E031EE1A
:104BD000A32E35E0B32E853209F02FCE8E2F63E061
:104BE0000E94ED28E92FF0E0E15FF84FE4910E2FED
:104BF00010E06EE5A62E62E1B62E1FCE81E0809316
:104C00009B02A3CE81E080939C02A8CE81E080939A
:104C10009D020ACF81E080939E020FCF00E210E058
:104C2000CE0101965C018091E80085FD0AC080916B
:104C3000E8008B778093E8000E944604882399F36C
:104C40002FCF8091F100F50181935F01015011098F
:104C500051F726CF1A8289E08B833FC08A81823048
:104C600009F4F1C18330A9F0813009F049C02FB7B0
:104C7000F8946091B4027091B5028091B60290915F
:104C8000B7022FBF0E9435296B837C838D839E835F
:104C900024C08091AC029091AD0298278927982773
:104CA0009C838B838091AE029091AF0298278927D5
:104CB00098279E838D838091B0029091B1029827AE
:104CC0008927982798878F838091B2029091B302A9
:104CD0009827892798279A878987CE0101960E946D
:104CE000A1044ECD8A81823059F46B817C818D8103
:104CF0009E810E94352985E290E00E94B929EDCF7E
:104D00008FEF8983EACF4C816B818A810E94840F67
:104D10009827892798279E838D83DFCFAD80BE801B
:104D2000BA24AB24BA248A810B81FEE10F9F800153
:104D3000112428E7829F000D111D11248C8190E021
:104D4000880F991F080F191F6B2DC80186960E94A6
:104D5000B9296A2DC8018796D0CF0E94B111BDCF65
:104D60008A81893091F08A30E1F08A81813869F155
:104D700008F5803809F0B1CF20E04B816091BB028B
:104D80008091BA020E94A713A8CF8B814CE0849F28
:104D9000C0011124B7010E940729862F0E944C0AE6
:104DA000E4CF8B81811103C00E940B12DECF0E94E1
:104DB0002112DBCF823859F1833809F08ECF20E001
:104DC0004091BC026C818B81DDCF60E08B810E94C1
:104DD0008A179B818091B902911111C08E7F8093B7
:104DE000B9021092AB028FEF90E7E2E08150904061
:104DF000E040E1F700C000000E94A30C6ECF81608C
:104E00008093B90260E086950E948A1766CF8B81F5
:104E10008093BD0262CF8A81893059F08A30B9F01F
:104E2000813831F1C8F4803809F057CF8091BC0245
:104E300013CF8091A902869586958695FFEF8F9F67
:104E4000C0011124B3010E9407296B8346CF8091D2
:104E5000A9028695817000CF823891F0833809F0DD
:104E60003CCF8091BA028B838091BB028C8335CF7B
:104E70008091B90280FF02C08695EECE80E0ECCE34
:104E80008091BD02E9CE8091A9020E940612609134
:104E9000B9027091BA028091BB029091BC020E944B
:104EA00073131BCF80E18A8318CF81E08A838AEF56
:104EB000D3CE0A811B81102701271027CE0101962E
:104EC0005C018C80FC01E80DF11D4F01C8018A5F77
:104ED0009D4FA814B90409F400CF0A3FF1E01F0761
:104EE00050F40E94A529F50184830F5F1F4FFFEF47
:104EF000AF1ABF0AEBCFF5011482F7CF0A811B81ED
:104F0000102701271027CE0101964C01AC80A00E7E
:104F1000B12EB11CC8018A5F9D4FA016B10609F4DD
:104F2000DCCE0A3FE1E01E0720F4F40164810E9418
:104F3000B929FFEF8F1A9F0A0F5F1F4FEBCF0E9417
:104F40003612CBCE84E0AFCF0A811B811027012718
:104F50001027CE0101965C018C80FC01E80DF11D4B
:104F60004F01C80186968A149B0409F4B6CE003E10
:104F7000F1E01F0750F40E94A529F50184830F5F1B
:104F80001F4FFFEFAF1ABF0AECCFF5011482F7CF26
:104F90000A811B81102701271027CE0101964C01A1
:104FA000AC80A00EB12EB11CC8018696A016B10629
:104FB00009F493CE003EE1E01E0720F4F401648181
:104FC0000E94B929FFEF8F1A9F0A0F5F1F4FECCF86
:104FD00080E00E9446126FEF7FEF90E080E00E9439
:104FE000D7297BCECE0101960E94A1042FEF41EE7E
:104FF00084E0215040408040E1F700C000000CCB2D
:1050000080E189BD82E189BD09B400FEFDCF8091B8
:10501000D8008F7D8093D8008091E00082608093DB
:10502000E0008091E00081FDFCCFAACB60E085E24A
:1050300090E00E94B9290E94B1110E94361281E0CD
:105040000E94461225CB85E290E00E94A5291B8292
:105050001C821D828E8341CE2D32314008F0AACCB5
:10506000FFCC2D32314008F036CC8BCC8F938FB7EC
:105070008F939F93EF93FF9380917A0290917B029D
:10508000019690937B0280937A02E0917B02E695F1
:10509000E695F0E0E153F94FE491FF91EF919F9194
:1050A0008F918FBF8F91189578941F921FB61F9282
:1050B00011248F939F93AF93BF938091B4029091EB
:1050C000B502A091B602B091B7020196A11DB11D23
:1050D0008093B4029093B502A093B602B093B70246
:1050E000BF91AF919F918F911F901FBE1F901895F8
:1050F0001F920F920FB60F9211242F933F934F934D
:105100005F936F937F938F939F93AF93BF93EF932F
:10511000FF9380917D0290917E02019668EB75E08D
:105120000E94072990937E0280937D026BE070E0DD
:105130000E9407296F7780917C02823041F46034AD
:1051400051F480916F008E7F80936F0004C0813096
:1051500011F46F37B1F3E62FF0E0E153FC4FE49127
:1051600021E031E0E29FC001E39F900D11246CE04B
:1051700070E00E9407298091A90286958695869500
:10518000282F269FC001279F900D11240E94EA0915
:1051900090938D0080938C00FF91EF91BF91AF9120
:1051A0009F918F917F916F915F914F913F912F913F
:1051B0000F900FBE0F901F901895DB018F939F9358
:1051C0000E940C2ABF91AF91A29F800D911DA39FB9
:1051D000900DB29F900D11240895991B79E004C0A1
:1051E000991F961708F0961B881F7A95C9F7809526
:1051F000089587FB082E062687FD819567FD61953A
:105200000E94ED280EF4919507FC81950895AA1B44
:10521000BB1B51E107C0AA1FBB1FA617B70710F0A1
:10522000A61BB70B881F991F5A95A9F780959095D3
:10523000BC01CD01089597FB072E16F4009407D00A
:1052400077FD09D00E94072907FC05D03EF4909510
:1052500081959F4F0895709561957F4F0895EE0F4A
:10526000FF1F0590F491E02D09946927962769277F
:1052700078278727782708958F929F92AF92BF92C1
:10528000CF92DF92EF92FF92CF93DF93EC01688190
:1052900079818A819B81611571058105910521F4D0
:1052A00064E279ED8BE597E02DE133EF41E050E0EA
:1052B0000E94ED2949015A019B01AC01A7EAB1E422
:1052C0000E940C2A6B017C01ACEEB4EFA5019401A5
:1052D0000E941A2ADC01CB018C0D9D1DAE1DBF1D45
:1052E000B7FF03C00197A109B04888839983AA83B7
:1052F000BB839F77DF91CF91FF90EF90DF90CF90AE
:10530000BF90AF909F908F9008950E943C29089580
:1053100080E091E00E943C290895B0E0A0E08093F5
:10532000000190930101A0930201B093030108953D
:10533000FC014150504030F001900616D1F73197F2
:10534000CF010895882799270895F999FECF92BD36
:1053500081BDF89A992780B50895A6E1B0E044E0B0
:1053600050E00C94DF29A8E1B0E042E050E00C945A
:10537000DF29262FF999FECF92BD81BDF89A0197BA
:1053800000B4021639F01FBA20BD0FB6F894FA9A8D
:10539000F99A0FBE08950396272F0E94BA290E94FA
:1053A000B929252F0E94BA29242F0C94BA290196D5
:1053B000272F0E94BA290C94B929DC01CB01FC01EA
:1053C000F999FECF06C0F2BDE1BDF89A319600B45E
:1053D0000D9241505040B8F70895052E97FB1EF4EA
:1053E00000940E94042A57FD07D00E941F2A07FC40
:1053F00003D04EF40C94042A509540953095219595
:105400003F4F4F4F5F4F08959095809570956195F0
:105410007F4F8F4F9F4F08950E94412AA59F900D67
:10542000B49F900DA49F800D911D11240895B7FF86
:105430000C940C2A0E940C2A821B930B0895A1E263
:105440001A2EAA1BBB1BFD010DC0AA1FBB1FEE1FFE
:10545000FF1FA217B307E407F50720F0A21BB30B49
:10546000E40BF50B661F771F881F991F1A9469F7C5
:1054700060957095809590959B01AC01BD01CF0121
:105480000895A29FB001B39FC001A39F700D811D1D
:105490001124911DB29F700D811D1124911D08953D
:1054A000F894FFCF9C119C11A511A511A711A5116E
:1054B000A511A5119C119C11AC11A511A511AC1140
:1054C0008715AF150216AF150216E2151A16021649
:1054D00022172F177F1B7F1BEE1BEE1B441C5E1C2D
:1054E000B41BB41B691C3F1D4E1D4E1D2E193619D1
:1054F00038195419681980199719A61ACD1AD41A8F
:10550000D91ADE1AE31AE81AED1AF21AF71AFC1A77
:10551000011B041B091B0C1B0F1B121B151B181B4B
:105520001B1B2A262E26722683268E26AD26B02603
:105530000B274327E827F2275227552759277E278D
:085540009F27A227A427C8271A
:105548000100000001191A1B1C1D1E1F2021220129
:1055580002E205C20B970B930B810B0100010202BB
:1055680002020606060909090909090F0F0F0F0F9C
:105578000F151515181919191919191919191923A0
:1055880024252525252525818283E200E900EA00D6
:10559800B500B600B700CD008301CC008A019201A6
:1055A80094012102230224022502260227022A024C
:1055B800B300B4006F007000979596946636353442
:1055C800F0F1F4F5F6F7C6303132334022BC8A01E7
:0A55D8006801AC0036074F076F07AB
:00000001FF
